:020000040800F2
:10000000602E00205D010008990600081D0500080B
:1000100025050008D1020008252600080000000080
:100020000000000000000000000000001D1F00088C
:100030000D050008000000001D1C0008211F00081D
:10004000D5020008D902000821260008000000009F
:100050000000000009050008152400087D240008A0
:10006000151F0008000000002105000869080008AD
:1000700029260008000000009521000871230008CF
:10008000B9230008C902000800000000DD020008D2
:10009000191F000800000000000000000000000020
:1000A000000000000000000000000000CD02000879
:1000B000770100081105000815050008190500085A
:1000C00000F002F800F03AF80AA090E8000C824430
:1000D0008344AAF10107DA4501D100F02FF8AFF20D
:1000E000090EBAE80F0013F0010F18BFFB1A43F016
:1000F000010318470468000024680000103A24BF78
:1001000078C878C1FAD8520724BF30C830C144BF7C
:1001100004680C60704700000023002400250026BE
:10012000103A28BF78C1FBD8520728BF30C148BF5A
:100130000B6070471FB51FBD10B510BD00F08AF8E9
:100140001146FFF7F7FF02F08DFD00F0A8F803B4A9
:10015000FFF7F2FF03BC00F0AFF80000094880474A
:1001600009480047FEE7FEE7FEE7FEE7FEE7FEE799
:10017000FEE7FEE7FEE7FEE704480549054A064BB1
:100180007047000091200008C1000008602800208E
:10019000602E0020602A0020602A002010B5203A3E
:1001A000C0F00B80B1E81850A0E81850B1E8185022
:1001B000A0E81850203ABFF4F5AF5FEA027C24BFF4
:1001C000B1E81850A0E8185044BF18C918C0BDE8DD
:1001D00010405FEA827C24BF51F8043B40F8043BA6
:1001E00008BF7047D20728BF31F8023B48BF11F85B
:1001F000012B28BF20F8023B48BF00F8012B7047B5
:100200004FF0000200B5134694469646203922BFAF
:10021000A0E80C50A0E80C50B1F12001BFF4F7AFFA
:10022000090728BFA0E80C5048BF0CC05DF804EBDC
:10023000890028BF40F8042B08BF704748BF20F84A
:10024000022B11F0804F18BF00F8012B7047704748
:1002500070477047754600F02BF8AE4605006946BA
:10026000534620F00700854618B020B5FFF784FFFD
:10027000BDE820404FF000064FF000074FF00008A7
:100280004FF0000BAC46ACE8C009ACE8C009ACE8E4
:10029000C009ACE8C00921F007018D46704710B5D0
:1002A0000446AFF300802046BDE81040FFF74FBF83
:1002B000004870471800002001491820ABBEFEE737
:1002C00026000200704700007047000070470000E1
:1002D000FEE7000070470000704700007047000014
:1002E00080B540F64401C2F20001B1F9001042F2BB
:1002F00084430144B1F56162C2F20003B8BF0A460B
:100300001B78002948BF01F56162012B42F280434E
:10031000C2F20003186006D140F64E00C2F200009F
:1003200030F91200014442F2A840C2F20000007805
:1003300044F2C61EC0F6000E4FF4616300FB03E3F7
:100340000FF23C1C5CF820009A5640F64203C2F2C1
:100350000003B3F9003008441044C11811F5E16FEF
:100360000846D8BF00F56160B1F5E16FC8BFA1F5DF
:10037000616010F5617F1FDA46F2EC11C0F60001F2
:1003800001EB4002B2F8102E42F29C43C2F200038D
:100390001A804FF67C42CFF6FF72101A31F8100027
:1003A00042F29841C2F20001088042F29A41C2F240
:1003B00000010020088056E0B0F1FF3F1DDD42F251
:1003C0009C42C2F200020021B0F5617F118030DA58
:1003D00042F29842C2F20002118046F2EC11C0F6DD
:1003E000000131F8102042F29A43C0F56170C2F268
:1003F000000331F810001A8035E046F2EC11C0F627
:100400000001A1EB4002128842F29C43C2F20003B9
:100410001A8042F29842C2F200020023138042F294
:100420009A4201EB4000C2F20002B0F808071380C4
:1004300019E046F2EC11C0F600014FF6F80301EBAB
:100440004002CFF6FF73C0F5E160D25A42F2984302
:1004500031F8100042F29A41C2F20003C2F20001E8
:100460001A800880002042F29641C2F20001088002
:1004700040F29440C2F200000121017080BD00BF33
:10048000BAFAFFFF000000000021C4F209010A6867
:10049000002822F0040218BF04320A6070470000EE
:1004A0000021C4F209010A6822F001021044086028
:1004B000704700000421C4F2090108607047000081
:1004C0000021C4F209010A68002822F0080218BFBE
:1004D00008320A60704700000021C4F209010A686E
:1004E00022F0020210440860704700000821C4F2A4
:1004F00009010860704700000020C4F209000021D3
:1005000041608160016070477047000070470000E3
:10051000704700007047000070470000FEE70000D1
:1005200070470000FEE7000000216FF0030200BFEB
:1005300083185B68002B18BF01231943CB0708BF42
:1005400012F10402F4D001F0010070470068704716
:1005500000687047B0B54FF0000C002350F823E05E
:1005600051F823400EEB0C052C4442F8234074450F
:100570004FF000054FF0000498BF012538BF01245B
:10058000BCF1000F03F1010318BF2C46012BA44658
:10059000E4D0B0BD80B5012AB8BF80BD04390438AD
:1005A0004FF0010E4FF0000C50F8043FDB4313EB0B
:1005B0000E034CF1000E013A41F8043FF4D180BD26
:1005C00040F2C840C2F200004FF0FF3141600160CC
:1005D0006FF000418160704740F2C840C2F20000F5
:1005E0000021416001604FF00041816070470000D0
:1005F000F0B581B006466FF0030000EB81071546A9
:10060000184631463A461C46FFF7C8FD4FF00040F9
:10061000E840F1594FF0FF3202EB40020A4000235C
:10062000A3EB4003014218BF1A43E25101B0F0BDF1
:1006300010B54FF0000C002350F823E051F8234090
:10064000AEEB0404A4EB0C0442F8234074454FF0D5
:10065000000E4FF0000428BF4FF0010E88BF0124A8
:10066000BCF1000F03F1010318BF7446012BA4462F
:10067000E2D010BD40F22050C2F200000268436890
:10068000806840F28051C2F200016FF39F304B60EE
:100690000A608860704700007047000000F01F008B
:1006A000012101FA00F04EF28011CEF20001086043
:1006B0007047000000F01F00012101FA00F04EF227
:1006C0000011CEF2000108607047000000F01F002A
:1006D000012101FA00F04EF20011CEF20001086093
:1006E000704700004EF20010CEF200008021016041
:1006F000704700000021C1600161416001608160BC
:1007000041618161C16170472DE9F04F86B0466853
:1007100082680492C268059202690392D0F814803C
:10072000D0F818A00090C5690A88002A5BD001277C
:1007300003234FF001144FF000094FF0000B4FF06E
:10074000000C0BE07F009B0064000CF1010CB9EB86
:10075000520F4FEA52020BF1020B44D0D007F1D0F6
:1007600026EA07008E78019506FA0CF630430290CF
:10077000087A049D00FA0BF09D4328430490887A80
:10078000059D00FA0CF0BD43284391F803E0059065
:100790000398C14691F804800CF11005A0430EFAAD
:1007A00005F6304308FA0CF630430390487929EAFD
:1007B0000406A8408D79304305FA0CF640EA060895
:1007C000487A2AEA030600FA0BF040EA060AC879DA
:1007D000019D00FA0CF025EA070640EA0605029E94
:1007E0004FF00009AEE70020009AC4F20B004FF072
:1007F000FF31824208BF6FF01F0106EA010050601E
:1008000004980840906005980840D060039808401C
:10081000106108EA010050610AEA0100906105EAEE
:100820000100D06106B0BDE8F08F0000006808400C
:1008300018BF0120704700000022C4F20B02904252
:10084000026808BF41F01F0122EA01010160704700
:1008500000230268C4F20B03984208BF22F01F0273
:1008600011430160704700007047000070B586B00A
:10087000836848F2A062C0F2010293420C4608D39A
:100880000168406821606060A36002F0DFF906B093
:1008900070BD01684268480491045A024FF4C802CE
:1008A00058BFDA03C72B40F208034FF4C80CC2F25A
:1008B000000398BF6246D3F800C0D3F804E09D68F7
:1008C0004FEA0C634FEA0E6C4FEA056E251D04F1EA
:1008D0000806049603950294CDF804E0CDF800C014
:1008E00000F010F820686168A268400C206088144D
:1008F0006060900BA06006B070BD000080B501F094
:1009000085F980BD2DE9F04F9DB01C904DF6A220D9
:10091000CCF60F100DF138090C460E901CA8494674
:100920000C931B9203F0E2F902F09EFF40F2B840F4
:1009300040F220530327C2F20000C2F20003032159
:100940000E22009703F0FAF9FFF794FE40F2D45517
:1009500040F28050C2F20005C2F200000E212A4689
:1009600003F02CFA40F20066C2F20006284620216D
:10097000324603F023FA3046FFF7EAFD40F20C65F9
:100980000B900220C2F2000500900DA801214A46FA
:100990002B460D9402F098FE40F21464C2F200045B
:1009A000284602212246032302F0B2FC40F22066D0
:1009B000C2F20006204603210E223346009703F0C0
:1009C000BDF940F22C64C2F2000430460321122229
:1009D0002346FFF70DFE40F2C848C2F20008204649
:1009E00003210E224346009702F0D4FD40F2D44486
:1009F000C2F200044046032120222346009702F061
:100A0000C9FD2046FFF7A2FD40F2E046C2F2000613
:100A10003146824602F078FC40F2E844C2F200041B
:100A2000304602211D2223464FF00209CDF80090E6
:100A300003F084F9304602F00FFF40F2F84B40F229
:100A4000005740F2F042C2F2000BC2F20007C2F2BD
:100A50000002204631465B46009702F0A3FC404668
:100A600003212A46022302F053FC40F20854C2F24A
:100A70000004284602211E222346FFF7B9FD204626
:100A800002211E222B46CDF8009002F083FD28465D
:100A9000FFF75CFD04465046394602F035FC384607
:100AA00002211E225B46D946FFF7A2FD04F0070093
:100AB00040F21058210748BF60F00700C2F200085A
:100AC0000D900DA801210EAA43460224009402F0C5
:100AD000FBFD40F21855C2F20005404602210122FA
:100AE0002B46009403F02AF9284602211E223B4699
:100AF000FFF77EFD40F2F044C2F20004584639464A
:100B00002246FFF795FD204602211E223346FFF7BD
:100B10006FFD40F2E845C2F2000530460221112285
:100B20002B460227009702F035FD2846FFF710FDFF
:100B300045F64915C2F6BE0581B228460D2202F0DF
:100B400037FB0A90000E4DF6A2210B9A049042F258
:100B50005E50CCF60F11C3F2F0608A4228BF024407
:100B60004FEA124B284659460D2202F021FB010E96
:100B7000069007915046494602F0C6FB48460221BE
:100B80001D2223460097022703F0D8F8484602F0BA
:100B900063FE40F2185540F20052C2F200052046B2
:100BA0004946C2F200022B46CDF8008002F0FAFB63
:100BB00040F2C840C2F2000003213246022302F094
:100BC000A7FB40F22C54C2F20004304602211E2240
:100BD0002346FFF70DFD204602211E2233460097D3
:100BE00002F0D8FC3046FFF7B1FC044650464146BF
:100BF00002F08AFB404602211E222B462E46FFF7BA
:100C0000F7FC04F0070040F23455210748BF60F0BC
:100C10000700C2F200050D900DA801210EAA2B4677
:100C2000009702F051FD40F23C54C2F20004284605
:100C3000022101222346009703F080F8204602217A
:100C40001E224346FFF7D4FC40F20057C2F20007D1
:100C5000304641463A46FFF7EBFC384602211E2259
:100C60004B46FFF7C5FC40F2F044C2F20004484690
:100C70000221112223460226009602F08BFC204618
:100C8000FFF766FC45F64914C2F6BE0481B2204661
:100C90000D2202F08DFA010E029003912046594672
:100CA0000D2202F085FA40F21854010EC2F200043F
:100CB00008900B915046214602F026FB2046022167
:100CC0001D223B460096022603F038F8204602F02B
:100CD000C3FD384640F23C57C2F200072146424667
:100CE0003B46009502F05EFB40F2C840C2F20000B5
:100CF00003214A46022302F00BFB40F24454C2F2A5
:100D00000004484602211E222346FFF771FC2046BC
:100D100002211E224B46009602F03CFC4846FFF79B
:100D200015FC044650462946CDF824A002F0ECFA02
:100D3000284602211E223B46FFF75AFC04F007001A
:100D400040F24C5B210748BF60F00700C2F2000B85
:100D50000DF1340A0D90504601210EAA5B46022483
:100D6000009402F0B1FC40F25456C2F2000658461C
:100D700002210122334600944FF0020802F0DEFF08
:100D8000304602211E222B46FFF732FC40F210545F
:100D9000C2F20004384629462246FFF749FC2046A5
:100DA00040F21854C2F2000402211E222346FFF72B
:100DB0001FFC204640F20054C2F20004022111221E
:100DC0002346CDF8008002F0E5FB2046FFF7C0FB8C
:100DD00081B245F64910C2F6BE000D2202F0E8F9D4
:100DE00040F27C2904990A9AC2F20009012439F9D7
:100DF000115004EB1261C9B239F911100590000EBF
:100E00000490481BC003C2F3074102F0C3F901F08C
:100E10000DFC0004401000EBC53001F007FC40F26F
:100E20005C5600B2C2F200060D901BAA504601218A
:100E30003346CDF8008002F047FC40F26453C2F222
:100E400000033046022110221E46CDF8008002F039
:100E500075FF0798069939F9107004EB1160C0B25C
:100E600039F91000C1F30741C01BC00302F092F929
:100E700001F0DCFB0004401000EBC73001F0D6FBB2
:100E800040F22C6500B2C2F200050D9030460221FE
:100E900052462B4603245646009402F0FFFA284699
:100EA00040F2C845C2F20005032110222B460094EF
:100EB00002F070FB284603215A46022302F028FA6A
:100EC00040F25454C2F20004584602211F22234625
:100ED000CDF8008002F05EFB2046FFF737FB40F2C2
:100EE000345AC2F2000A514602F00EFA40F23C5463
:100EF000C2F20004504602211F222346CDF8008092
:100F000002F01CFF0C98594602F0FEF958460221E7
:100F100015225346CDF8008002F010FF204640F223
:100F20001054C2F2000451462246FFF713FB20463C
:100F300040F21854C2F2000402211F222346CDF8C9
:100F4000008002F027FB2046FFF700FB0399029A7E
:100F5000012539F9117005EB1261C9B239F9111087
:100F60000C90C81BC003C2F3074102F013F901F053
:100F70005DFB0004401000EBC73001F057FB40F26E
:100F80006C5700B2C2F200070D90304601211BAA37
:100F90003B460224009402F097FB40F27453C2F2E5
:100FA00000033846022110221F4600944FF0020829
:100FB00002F0C4FE40F23C620B980899C2F20002B3
:100FC00032F9104005EB1160C0B232F91000C1F3E4
:100FD0000741001BC00302F0DDF801F027FB00040D
:100FE000401000EBC43001F021FB40F22C6500B250
:100FF000C2F200050D903846022132462B460324EA
:10100000009402F04BFA284640F2C845C2F20005AF
:10101000032110222B46009402F0BCFA40F25C59E6
:10102000C2F20009284603214A46022302F070F961
:1010300040F26454C2F20004484602211F222346B3
:10104000CDF8008002F0A6FA2046FFF77FFA594655
:1010500002F05AF9584602211F225346CDF800806B
:1010600002F06CFE2698494602F04EF948460221ED
:1010700015225B46CDF8008002F060FE40F23C5441
:10108000C2F20004504659462246FFF763FA204652
:1010900040F21054C2F2000402211F222346CDF870
:1010A000008002F077FA2046FFF750FA049940F2E8
:1010B0003C63C2F20003059A33F91140012101EBB0
:1010C0001261C9B233F911108246081BC003C2F382
:1010D000074102F05FF801F0A9FA0004401000EBAC
:1010E000C43001F0A3FA40F28C5700B2C2F20007FC
:1010F0000D90304601211BAA3B460224B0460094C5
:1011000002F0E2FA40F26C5BC2F2000B38460221B8
:1011100010225B46009402F011FE40F27455C2F2B8
:1011200000055846022120222B460094022602F098
:1011300031FA2846FFF70AFA494602F0E5F840F28C
:101140004C54C2F20004484602211F222346009656
:1011500002F0F4FD2798594602F0D6F858460221CD
:1011600015224B46009602F0E9FD204640F2345429
:10117000C2F2000449462246FFF7ECF9204640F24D
:101180003C54C2F2000402211F222346009602F0C2
:1011900001FA2046FFF7DAF904460C980EAD0D90DF
:1011A0000E90404601212A465B46009602F076F9F1
:1011B0005846022101224B46009602F0EBF9022626
:1011C000404601212A463B46CDF834A0CDF82CA05C
:1011D000CDF838A0009602F061F9384602210122CC
:1011E0005B46009602F0D6F940F24C5AC2F2000A71
:1011F000484659465246FFF7ADF940F23457C2F21D
:1012000000075046022101223B46009602F0C2F937
:10121000404601212A464B460D9408940E940096B0
:1012200002F03CF94846022102225346009602F0A1
:10123000B1F940F2A445C2F20005384651462A46AB
:10124000FFF788F943F6B471C0F600012846022280
:1012500002F014F920B1DDF824B02A9900252DE020
:1012600040F24C5440F2A44A00251E26C2F200046B
:101270000DF134080DF138094FF0020BC2F2000AEB
:101280000120B04040EA0507404601214A46234676
:101290000D970E97CDF800B002F000F920465146A8
:1012A000022202F0EBF80028A6F1010618BF3D4625
:1012B000701CE5D12A994FF0FF3B02260A9840F2B4
:1012C0006C54000C0A90680008600C98C2F200048C
:1012D0000DF1340A0DF138090D900E9050460121A0
:1012E0004A4623460096012502F0D8F840F25C58A1
:1012F000C2F200082046022101224346009602F075
:1013000049F90B9840F28C57C2F200070D900E90ED
:10131000504601214A463B46009602F0BFF8384647
:10132000022101222346009602F034F940F29C4645
:10133000C2F20006404621463246FFF70BF943F65B
:10134000B471C0F600013046022202F097F84FF067
:101350000009002846D140F26C5440F22C6640F25D
:10136000C84740F29C484FF01E0AC2F20004C2F285
:101370000006C2F20007C2F2000800BF05FA0AF038
:1013800040EA090B0DA801210EAA23460225CDF83B
:1013900034B0CDF838B0009502F080F82046022134
:1013A0003246032301F0B4FF3046032101223B46BD
:1013B0000325009502F0C2FC404602213246032379
:1013C00001F0A6FF38463146032202F057F8002804
:1013D000AAF1010A18BFD94601251AF10100CDD1A1
:1013E0004FF0FF3BDDF820A0BAF1010F33DB40F2F4
:1013F0009454C2F200044846214601F085FF40F2B1
:101400009C56C2F200064FF0020C20460221012237
:101410003346CDF800C002F091FC40F2A458C2F26D
:101420000008304602211F224346FFF7E1F85046EC
:10143000214601F069FF204602211F223346FFF7B3
:10144000D7F84046314602F001F870B14FF000087D
:1014500041F6221518E1BAF1FF3F49DD46F2884016
:1014600000EAE9754FF000080EE1B9F1000F72D4FF
:1014700040F2AC54C2F200045046214601F044FF51
:1014800040F2B458C2F20008204602211F2243460F
:101490000225FFF7ADF840F2C457C2F200074846F4
:1014A000394601F031FF40F2E056C2F200063846FC
:1014B000022101223346009502F040FC3046022111
:1014C0001F222346FFF794F840462146022201F0EE
:1014D000D5FF002800F08580B9F1000F4FF6FF76A8
:1014E00000F08980089849460F2201F063FA7FE0F6
:1014F00040F29454C2F200044846214601F004FF31
:1015000040F28C56C2F200064FF0020C2046022137
:1015100001223346CDF800C002F010FC40F26C58B6
:10152000C2F20008304602211F224346FFF760F84E
:101530005046214601F0E8FE204602211F22334694
:10154000FFF756F84046314601F080FF002857D09B
:101550004BF29A4594E040F2CC55C2F20005C9F135
:10156000000650462946CDF824B0B9F1004F08BF17
:101570006FF0004601F0C8FE40F29458C2F2000835
:10158000284602211F2243464FF0020BFFF730F896
:1015900040F2E857C2F200073046394601F0B4FE87
:1015A00040F2F054C2F200043846022101222346E0
:1015B000CDF800B002F0C2FB204602211F222B46CC
:1015C000FFF716F84046294601F040FF002807962D
:1015D00000F03582DDF824B04FF0000844F666359F
:1015E00052E048465146112201F0E4F94FF6FF76E9
:1015F000B042B8BF0646012000254FF0000845E084
:10160000B9F1000F00F1618240F2E854CAF1000B19
:10161000C2F20004BAF1004F08BF6FF0004B584609
:10162000214601F071FE40F2F058C2F20008204657
:1016300002211F2243460225FEF7DAFF40F2CC5773
:10164000C2F200074846394601F05EFE40F2AC5651
:10165000C2F200063846022101223346009502F00C
:101660006DFB304602211F222346FEF7C1FF404694
:10167000214601F0EBFE002800F06F824EF2DE659D
:101680004FF00008CFF6FF7500200A9E002800F0FA
:101690008880B0B240F27801000AC2F2000101EB8A
:1016A000400231F810405188F0B2091B890308222A
:1016B000CDF824B00A9601F07BFD4CF20001C3F690
:1016C000FF71084040F2BC5600EB8430C2F20006C5
:1016D000C0F34C454846314601F016FE40F2C45472
:1016E000C2F200044FF0020A3046022101222346D2
:1016F000CDF800A002F022FB40F2E053C2F200035A
:10170000204602211F22FEF773FFDDF820B031468C
:10171000584601F0F9FD304602211F222346FEF70C
:1017200067FF15AF5846394601F0EEFD38460221F5
:101730001F223346FEF75CFF13AC0798214601F0E9
:10174000E3FD11AE2046022101223346CDF800A070
:1017500002F0F4FA304602211F223B46FEF748FF12
:10176000B9F1000F0FD440F2E05040F2C451C2F280
:101770000000C2F2000101F08BFE43F24321002879
:1017800018BF4D1B0AE015A801F068FE002807BF2E
:1017900046F28740451B43F243200544DDF824B060
:1017A0000A9EB8F1000F00F09980B0B240F27801C3
:1017B000000AC2F2000101EB400231F810405188EA
:1017C000F0B2091B8903082201F0F2FC4CF200017F
:1017D000C3F6FF71084040F2B45700EB8430C2F208
:1017E0000007C0F34C485846394601F08DFD40F2E1
:1017F000C453C2F20003384602211F224FF0020AEE
:10180000FEF7F6FE40F2E056C2F2000648463146C8
:1018100001F07AFD40F2BC54C2F2000430460221CD
:1018200001222346CDF800A002F088FA20460221CA
:101830001F223B46FEF7DCFE5846314601F064FDB0
:10184000304602211F222346FEF7D2FE40F29C546E
:10185000C2F200040798214601F056FD40F2A45759
:10186000C2F200072046022101223B46CDF800A02B
:1018700002F064FA384602211F223346FEF7B8FE12
:10188000B9F1000F0ED440F2C45040F2B451C2F28C
:101890000000C2F20001022201F0F0FDB8B1C8F16F
:1018A00000051BE040F2E050C2F2000001F0D6FD5E
:1018B00080B14CF6BD50CFF6FF704FF48031A0EBF5
:1018C000080500290CBFADB2CFF6FF7506E043F264
:1018D000432001E046F28740A8EB00050B980C99E5
:1018E0000A9500F0BDFEB0F1FF3F4FEAC0302BDC9F
:1018F00040F2F854C2F20004214601F005FD17AD94
:101900000226204602211E222B46009602F016FADD
:101910004FF65430C1F6211060604FF080402060D7
:1019200043F6BC7113ACC0F6000128462246FEF710
:1019300011FE11AD204602211E222B46009601F019
:1019400029FE2846FEF702FE0DF1640A514601F019
:10195000DBFC40F2F858C2F200084FF0020B504690
:1019600002211F224346CDF800B002F0E7F94CF205
:10197000B71040F21467C5F27C10C2F200070D9058
:101980004FF003090DAA404602213B46CDF80090D6
:1019900001F09AFE40F22064C2F2000438460321AE
:1019A0001F222346CDF8009001F0F4FD17AE20462B
:1019B00003213246022301F0ABFC13AD3046022175
:1019C0001D222B46CDF800B001F0E4FD2846FEF7BD
:1019D000BFFD28990FAD08600A982946400401F020
:1019E00093FC284602211F225346CDF800B002F096
:1019F000A5F9504602210DAA3B46CDF8009001F012
:101A000063FE384603211F222346CDF8009001F0E3
:101A1000C1FD204603214246022301F079FC4046E5
:101A200002211E223346CDF800B001F0B3FD30464E
:101A3000FEF78CFD299908601DB0BDE8F08F40F2DB
:101A4000E855C2F200055046294601F05DFC40F21F
:101A5000F058C2F20008284602211F224346FEF732
:101A6000C7FD40F2AC54C2F200043046214601F0FA
:101A70004BFC40F2B457C2F200072046022101227B
:101A80003B46CDF800B002F059F9384602211F223A
:101A90002B46FEF7ADFD4046294601F0F9FC18B192
:101AA000504631460F2202E030465146112200F0E6
:101AB00081FFDDF824B04FF6FF76B042B8BF06468E
:101AC000012000254FF00008E0E540F2CC55C9F1B7
:101AD0000006B9F1004FCAF1000BC2F2000508BFC1
:101AE0006FF00046BAF1004F08BF6FF0004B584648
:101AF000294601F009FC40F29458C2F20008284639
:101B000002211F2243464FF0020AFEF771FD40F208
:101B1000E854C2F200043046214601F0F5FB40F2E1
:101B2000F057C2F200072046022101223B46CDF8C1
:101B300000A002F003F9384602211F222B46FEF7CF
:101B400057FD40462946022201F098FC00280796DE
:101B50003ED0584631460F223DE040F2CC54C2F20E
:101B600000045846214601F0CFFB40F2AC58C2F2C7
:101B70000008204602211F224346FEF739FD40F2AD
:101B8000B457C2F200074846394601F0BDFB40F2A7
:101B9000C456C2F20006384602210122334600959F
:101BA00002F0CCF8304602211F222346FEF720FD2A
:101BB0004046214601F06CFCC8B1B9F1000F4FF668
:101BC000FF761ED0584649460F2200F0F3FE15E07E
:101BD00030465946112200F0EDFE4FF6FF76B04236
:101BE000B8BF064600254FF0010800204EE54846E4
:101BF0005946112200F0DEFE4FF6FF76B042B8BF24
:101C0000064600254FF0010800203FE580B500F0B2
:101C10007FFE01F04BFD00F015FD80BD7047000018
:101C20008821C4F240210860704700000422C4F2F9
:101C30000202936823F003031843906013688C201A
:101C400023F4706343EA0121C4F24020116050F88C
:101C5000041C002908BF70470121016000210160B8
:101C60007047000080B582B000200190212000F074
:101C7000CBF8019901F101010191019910B9B1F578
:101C8000C06FF3D3212000F0BFF8002818BF012057
:101C900002B080BD40F28811C4F240210860704754
:101CA0000C21C4F202010A6822F0F00242EA00109C
:101CB000086070470C21C4F202010A6822F44072E5
:101CC000104308607047000080B500F005F94FF040
:101CD0000060012100F0F4F848F23C00C4F20D006D
:101CE000016841F481010160016801F48101016032
:101CF00080BD00002DE9F0410C21C4F202010A6808
:101D00000A6840F6001CC0F23D0CD2070B68624620
:101D100004BF41F20022C0F27A025B07964606D564
:101D200051F8083CC3F30323013303FB02FE0B68A5
:101D3000C3F3012441F20023C0F27A0374B1022CF0
:101D40000ED0012C0FD10C68240674460DD50C68FA
:101D5000C4F3021401342EFA04F406E01C4604E035
:101D60004FF4004401E049F6404404604C684C687C
:101D70004D68E407644608BF1C466D07A04606D5BB
:101D800051F8085CC5F30315013505FB04F84D68EF
:101D9000C5F3001528FA05F54560CD68C5F30217AF
:101DA0002D061D4648BF2CFA07F5C560CF6807F021
:101DB00007063F0748BF2CFA06F303618B6813F050
:101DC000030306D0022B724603D02246012B18BF14
:101DD00042468B68C3F301133BB1022B07D0012BA2
:101DE00014BF2A4649F6404201E04FF40042896898
:101DF0000B05C1F30221013101EAE37122FA01F17D
:101E00008160BDE8F081000048F23C0200F0E00192
:101E1000C4F20D02202904BF0022C4F2020211689C
:101E200000F01F0021FA00F000F0010070470000F0
:101E30000821C4F202010A68012822F003020A60A4
:101E400003D0022818BF704703200A6810430860B7
:101E50007047000080B582B0002001902220FFF77B
:101E6000D3FF019901F101010191019910B9B1F577
:101E7000C06FF3D32220FFF7C7FF002818BF01204F
:101E800002B080BD40F2D871C4F2B0310860704732
:101E900080B582B0002001901720FFF7B5FF0199AF
:101EA00001F101010191019910B9B1F5C06FF3D3AE
:101EB0001720FFF7A9FF002818BF012002B080BD3E
:101EC000002940F21C01C4F202010A680CBF22EA98
:101ED000000010430860704710B50120FFF7D2FFE3
:101EE000FFF7D6FF00200024FFF7E4FE0420C4F231
:101EF0000200816884600168046041684460C168D0
:101F0000C4600169046141691021C0F600014461A7
:101F1000816110BD704700007047000070470000ED
:101F2000B0B540F23860C2F20000017842F2944449
:101F30000129C2F2000418D140F64001C2F20001AA
:101F40000A780132D3B2022B0A700ED1002202703D
:101F50000120207000200A70C4F2070001210260F5
:101F600000F0E8F80E20FEF7A5FB207842F2894544
:101F70000128C2F2000513D1287888B940F6400044
:101F8000C2F2000001780131CAB2022A017007D101
:101F900042F28541C2F2000101220A700021017063
:101FA00040F23960C2F200000178012918D140F6F0
:101FB0004001C2F200010A780132D3B2022B0A704A
:101FC0000ED1002202700220207000200A70C4F29C
:101FD00007000121026000F0ADF80E20FEF76AFB59
:101FE0002078022813D1287888B940F64000C2F240
:101FF000000001780131CAB2022A017007D142F211
:102000008541C2F2000101220A7000210170002006
:10201000287042F28840C2F2000001210170B0BD78
:102020000C20C4F20200016801680268C90740F68A
:102030000011C0F23D0104BF41F20021C0F27A015B
:10204000520705D550F8082CC2F303220132514340
:102050000268C2F3012252B1022A0DD0012A0ED128
:102060000068C0F303100130B1FBF0F009E041F269
:102070000020C0F27A0004E04FF4004001E049F68D
:10208000404040F20401C2F20001086070470000C5
:1020900080B504201021C4F20200C0F60001816165
:1020A0008168002181600268016042684160C26805
:1020B000C16002690161FFF7B3FF80BD40F2240CEB
:1020C000C4F2020C0022DCF80030C4F20802904294
:1020D00012D048F20002C4F20702904218D0002247
:1020E000C4F20702904210D123F0FF00084340F0F1
:1020F0008073CCF8003070474FF6FF70CFF6003099
:10210000184040EA014040F08063CCF8003070474E
:10211000FF20CFF6FF50184040EA012040F0007346
:10212000CCF8003070470000426D22EA01014165A1
:1021300070470000C268002922F0010218BF013276
:10214000C26070470021C16001604160816001622E
:1021500041628162C162016341638163C16301665F
:1021600041668166C166016141618161C16101674A
:1021700041678167C167016441648164C16401652D
:1021800041658165C1657047406D084018BF0120F9
:10219000704700002DE9F0410025C4F207052846EC
:1021A0008021FFF7F1FF012840F0D4800024284669
:1021B0008021C4F20804FFF7B7FF42F28940C2F25F
:1021C000000001210170286842F2A041C2F2000122
:1021D000086000202860096842F2A4474A08C2F259
:1021E00000073A6041F2C222891A40F21D3242F2DF
:1021F00078489142C2F200083ED840F29441C2F2BF
:1022000000010A7842F26E43C2F20003012A1880EC
:1022100029D10020087042F29A40C2F200000088E2
:1022200040F23A61C2F20001088042F29640C2F2E6
:102230000000008840F20001C2F20001088042F272
:102240009C40C2F20000008840F20201C2F200018C
:10225000088042F29840C2F20000008840F27A21E1
:10226000C2F200010880002040F298412060C2F2D2
:1022700000010968A1605EE042F26E40C2F2000017
:10228000018801318AB2082A018021D30026068004
:102290000E20FEF703FA28460021FFF74BFF2E60C1
:1022A00001F00EF800F0CAFC42F29440C2F20000C5
:1022B00006700E20FEF7F2F920460021FFF73AFFE4
:1022C00026603968042001F0C9F9C8F8006037E0D9
:1022D00040F29440C2F200000178012929D1002186
:1022E000017042F29A40C2F20000008840F23A6166
:1022F000C2F20001088042F29640C2F2000000885B
:1023000040F20001C2F20001088042F29C40C2F299
:102310000000008840F20201C2F20001088042F28F
:102320009840C2F20000008840F27A21C2F2000117
:10233000088000202060606520460121FFF7FAFE3A
:10234000D8F800004FF6FF72411C904208BF0121EF
:10235000C8F8001042F27C40C2F20000016840F26E
:10236000FF734A1C994208BF01220260BDE8F08158
:10237000B0B542F27041C2F200010888421C40F23E
:102380000200C2F20000B0F900000A80FEF792F8E5
:1023900040F27A20C2F20000B0F90000FEF7A6F881
:1023A00048F20004C4F207040025204600216565B8
:1023B000FFF7C0FE2560B0BDB0B50024C4F208042C
:1023C000204600210025FFF7B5FE40F23A60256067
:1023D0006565C2F20000B0F90000FEF76BF840F24C
:1023E0000000C2F20000B0F90000FEF77FF848F2EA
:1023F0000000C4F2070045F2601181600121FFF77F
:1024000099FE42F27240C2F200000188013101805F
:10241000B0BD000010B50024C4F2030420464021E2
:1024200000F0A2F8012827D1204600F0F1F8C1B24F
:1024300042F63000EB29C2F2000004D10268182AEB
:102440009CBF0022026002689C2902F10103024441
:102450000360117104D00168192904BF00210160D3
:1024600001681A2918BF10BD42F28641C2F200016C
:1024700001220A700021016010BD000010B548F271
:102480000004C4F203042046402100F06DF8012846
:1024900027D1204600F0BCF842F65001C2F20001FC
:1024A0000A686AB942F2A843C2F200031B7845F6F3
:1024B000E874C0F60004E35CC0F303149C4210D13E
:1024C000C0B2531C0A440B6010710868062818BF7C
:1024D00010BD0020086042F28740C2F200000121D6
:1024E000017010BD40F2280CC4F2020C48F2000248
:1024F000DCF80030C4F2030290420CD00022C4F297
:10250000030290420FD123F0FF00084340F0807394
:10251000CCF800307047FF20CFF6FF50184040EA5B
:10252000012040F00073CCF800307047026B4FF68A
:10253000FE7C42F00103002908BF02EA0C0303639A
:1025400070470000002190220163C16241608261F6
:1025500002220162416281624263816381644FF4BD
:1025600040710163704700008069084018BF012076
:1025700070470000002A826B0CBF22EA0101114360
:1025800081637047B0B586B0044601A80D46FFF7D9
:10259000B1FB2821C4F2020148F200020198096847
:1025A000C4F20302944207D00022C4F20302944210
:1025B00005D101F0070101E0C1F30221C8402A68FA
:1025C0009108B0FBF1F18000B0FBF1F0801AC0017E
:1025D000B0FBF2F0022802D9002006B0B0BD01F035
:1025E0003F0089096162A062E06AA988EA886B8974
:1025F00011432A89114319430843E062206B4FF6C7
:102600008071AA89884310432063012006B0B0BDC1
:10261000006880B2704700006FF35F21016070476F
:1026200070470000FEE70000704700000021CFF671
:10263000FE7141EAD031B0F1FF3FC8BFC10B08467F
:102640007047000080B540F2780043F6C471C2F2D2
:102650000000C0F6000140F20222FDF79FFD80BDA0
:102660002DE9F04F81B0054601280C4606DBAC424F
:1026700010D14FF0000B41F6221025E0B5F1FF3FDD
:102680001CDD46F288404FF0000BB4F1FF3FC8BF9D
:10269000002019E0002C19D41022A542C7BF204603
:1026A00029462846214600F085F94FF6FF77B842C3
:1026B000B8BF074601214FF0000B38E0AC4213D100
:1026C0004FF0000B4BF29A40002130E0C4F10009BA
:1026D000B4F1004F08BF6FF00049A94516D14FF083
:1026E000000B44F66630EFE7002C00F180806E426C
:1026F000B5F1004F08BF6FF00046A642009640F0CB
:1027000096804FF0000B4EF2DE60DDE74FF01002D6
:10271000D9BF484629462846494600F04BF94FF6AE
:10272000FF7701214FF0000BB842B8BF07464CF2CB
:10273000000A40F27806C3F6FF7AC2F20006D1B171
:10274000B8B2000A06EB400136F810804988F8B2AA
:10275000A1EB08018903082200F02AFD00EA0A0023
:1027600000EB8830002CC0F34C4024D443F24321CA
:10277000AC42B8BF081ABBF1000F34D0B8B2000A9F
:1027800006EB400136F810504988F8B2491B89031E
:10279000082200F00DFD00EA0A0000EB8530002C55
:1027A000C0F34C4013D40099A142D2BF404243F23F
:1027B0004321401A17E0A945A7BF46F28741081AEE
:1027C00043F243210844BBF1000F0CD0D6E7009937
:1027D000494505DD4CF6BD51CFF6FF71081A02E000
:1027E00046F28741401A00B201B0BDE8F08FC4F153
:1027F0000009B4F1004FC5F1000108BF6FF00049B6
:10280000B5F1004F08BF6FF000411022494500911B
:10281000CEBF48460846494600F0CCF84FF6FF7751
:10282000B842B8BF074600214FF0010B7FE74FF0D9
:102830001002A7BF204631463046214600F0BAF8C4
:102840004FF6FF77B842B8BF074600214FF0010BA3
:102850006DE7000001290BD04942421E002000BF55
:1028600012F801CF01314B1C6044F9D1C0B270475E
:102870000020C0B27047000070B50646032835D866
:102880000720FDF70BFF42F2A94148F20000C2F217
:102890000001C4F2030040F28532642301F038FBEA
:1028A00008B342F2A945C2F20005284640F285313C
:1028B00000F04AF9B8B140F64E00C2F200004FF401
:1028C000E16106FB0100691E6FF0010240F2067330
:1028D00011F9015F841802329A426580F8D108200C
:1028E000314600F0BBFE0720FDF7E4FE0A2E04D0BF
:1028F0000B2E18BF70BD012000E0002042F2844181
:10290000C2F2000108700820314600F0A7FE70BD39
:1029100080B540F27C2045F6E851C2F20000C0F6D6
:1029200000014FF40072FDF739FC80BD80B5FDF762
:10293000E3FD0020FDF7B4FD0120FDF7A5FD00201B
:10294000FDF7CAFD0120FDF7BBFD80BD0346B0FBCE
:10295000F1F0002A08BF7047B0B500FB11354FF009
:10296000000C00BFB5F1FF3F4FF0000E4FF0000428
:10297000C8BF4FF0010E002848BF01244CEA040CE8
:102980000024B1EB450F88BF012414EA0E0484F043
:102990000104C1EB450344EA400018BF6B00013A53
:1029A0001D46DFD15FEACC7118BF4FF0FF30BDE8A4
:1029B000B040704780B5FFF7C9FFB0F1FF3FD8BF07
:1029C0006FF0004080BD00002DE9F04F85B040F26F
:1029D000000AC4F20B0A0AF5C0344FF0000B20467F
:1029E000CDF810B0CDF80CB0CDF808B0FDF782FEF0
:1029F0000AF560300190FDF77DFE5046FDF77AFE46
:102A00000AF500494846FDF775FE4FF400400AF507
:102A1000803702AEADF808000125384631468DF802
:102A20000AB08DF812508DF80C50FDF76DFE40F293
:102A3000012820463146ADF808808DF80A508DF8FF
:102A400012B0FDF761FE4FF48050ADF80800384633
:102A500031468DF80AB0ADF810808DF812508DF81F
:102A60000C50FDF751FE4FF47840ADF8080040F2ED
:102A70000114504631468DF810B08DF80A50ADF86B
:102A80001140FDF741FE7020ADF808004846314680
:102A90008DF810B08DF80A50ADF81140FDF734FEF6
:102AA00040F20230ADF810002020ADF8080050468A
:102AB00031468DF812508DF80A50FDF725FE402062
:102AC000ADF80800504631468DF80AB0FDF71CFEFF
:102AD0000320019C8DF810000220ADF8080020466C
:102AE00031468DF80A50FDF70FFE204631468DF82D
:102AF0000AB0ADF80850FDF707FE05B0BDE8F08F4D
:102B000010B5B1F1010C19D04B42421E002100BF9B
:102B100012F801EF01335C1C7144F9D16044B1F546
:102B2000807F04D3CAB202EB1121FF29FAD80078C2
:102B3000C9B2401AB0FA80F0400910BD0021B1F5C9
:102B4000807FF4D3EEE70000B0B50C460546FFF7F2
:102B500081FE611911F8011C401AB0FA80F0400999
:102B6000B0BD000080B540F63C0CC2F2000CDCF8B1
:102B700000305A1C022BCCF800200BD842F28C42B9
:102B8000C2F20002106042F29040C2F20000016006
:102B9000012080BD42F28C4CC2F2000CDCF8003007
:102BA0004FF400721B1A02EB430292B2B2F5806F2F
:102BB0000DD842F2904EC2F2000EDEF800204FF027
:102BC0008073521A03EB0242B2F1007F01D9002058
:102BD00080BDCCF800000120CEF8001080BD0000C0
:102BE00080B500F009F880BD80B5FFF7F9FF4FF41C
:102BF000804000F015F880BD80B50020C4F20B00C5
:102C00004FF47041FDF718FE80BD000080B5002034
:102C1000C4F20B004FF40041FDF70EFE80BD000032
:102C200080B501460020C4F20B00FDF711FE80BD07
:102C300080B54FF48050FFF7F3FF80BD80B5FFF7FC
:102C4000CFFF4FF48050FFF7EBFF80BD80B5FFF75B
:102C5000DDFF80BD80B5FFF7C3FF4FF40050FFF7E5
:102C6000DFFF80BD82B04EF21004002540F2000B61
:102C7000CEF200044FF0FF30C4F20805C4F2070B97
:102C8000C4F87002C4F8700100F0F2FAFFF79CFE7D
:102C900000F016FBFFF7CCFF05F580204FF4004154
:102CA000FDF7C4FD42F2A841C2F20001002818BF9E
:102CB0000120087000F07EFD00F09CFD00F0B4FDE6
:102CC000A86840F29841C2F20001086001F0C6F81D
:102CD00001F0EEF8FFF72AFE4FF4E670FDF700FB77
:102CE00005F540304FF40061FDF7B2FD6FF07F4015
:102CF000606007202060FDF701FE42F6300842F6D2
:102D0000500042F2854442F28649C2F2000840F285
:102D10007C47C2F20000C2F200044FF0000AC2F287
:102D2000000908F10406C2F200070430019019E01E
:102D300042F27442C2F20002107842F28841C2F2BA
:102D4000000181F800A0411C0028117000F02581CD
:102D500042F29440C2F200000178012082F800A003
:102D600000F07CFC2078012839D142F28940C2F27F
:102D7000000080F800A040F64000C2F2000084F895
:102D800000A080F800A000F09BFAFFF757FF42F286
:102D90007840C2F20000C0F800A042F27C40C2F2CB
:102DA0000000C0F800A042F29440C2F2000080F897
:102DB00000A00E20FDF772FC0025C4F2080528468D
:102DC0000021FFF7B7F958460021C5F800A0FFF72A
:102DD000B1F904200121CBF800A000F03FFC99F8E4
:102DE000000001286ED130461A2189F800A0FFF7B3
:102DF00087FE0028B6D098F8101098F8112098F89F
:102E00000F00490101EB920101EB003098F8171017
:102E100098F8182098F81630490101EB92015A06EB
:102E200001EB033198F8152098F8143098F81250F7
:102E300002EBC31298F8133048BF494202EB8332C9
:102E400040F64803C2F200031B8802EB455203EB35
:102E5000400040F64A03C2F200031B8880B203EB35
:102E6000410140F64C03C2F20003B3F9003009B24D
:102E7000400849101A4438607960BA60FFF772FE62
:102E800000283FF46FAF40F28845C2F20005384693
:102E90002946FDF7EBFC42F2A840C2F200000078A0
:102EA00040F64601002818BF04352868C2F2000128
:102EB000B1F900104FF46162504301EBE030FDF7CF
:102EC0000FFA4FE742F28740C2F200000078012873
:102ED00040F0568142F28740C2F2000080F800A024
:102EE00001980621FFF730FE002800F0498142F6E4
:102EF0005001C2F200010879D1F8052000F00F005E
:102F0000411E0E2910BA00F23B81DFE811F00F00DC
:102F10004F003901390161006F007D008B008E0088
:102F2000A500B300390139013901C20042F6500051
:102F3000C2F20000007A022800F0B080012800F000
:102F4000C780002840F01C8100F0BAF9FFF776FE38
:102F500042F27840C2F20000C0F800A042F27C4089
:102F6000C2F20000C0F800A042F29440C2F2000099
:102F700080F800A00E20FDF791FB58460021FFF7D6
:102F8000D9F80025C4F2080528460021CBF800A096
:102F9000FFF7D0F8C5F800A0EEE042F28040C2F2A0
:102FA00000000168032000F059FBDBE642F2944088
:102FB000C2F200000078022800F0E28042F65000E1
:102FC000C2F20000B0F80700C0BAFDF789F9D7E0F7
:102FD00042F65000C2F20000B0F8050040F644018D
:102FE00000BA000CC2F200010880C9E042F65000AD
:102FF000C2F20000B0F8050040F6420100BA000C31
:10300000C2F200010880BBE042F65000C2F20000AC
:10301000B0F8050040F6460100BA000CC2F200010B
:103020000880ADE0FFF728FCAAE042F65001C2F2AA
:103030000001B1F80500B1F8071000BA40F64802E7
:10304000000CC2F20002108008BA40F64A01000CDF
:10305000C2F20001088093E042F65000C2F2000084
:10306000B0F8070040F64C0100BA000CC2F20001B3
:10307000088085E042F65002C2F200029079D179D0
:10308000127A40F20803C2F20003186059609A6095
:1030900076E00F20002100F0E1FA71E042F2894071
:1030A000C2F2000080F800A040F64000C2F200002A
:1030B00084F800A080F800A000F014F9FFF794FD58
:1030C00042F29441C2F200010878D8B102201EE019
:1030D00042F28940C2F2000080F800A040F64000B1
:1030E000C2F2000084F800A080F800A000F0FAF816
:1030F000FFF7B0FD42F29441C2F20001087818B324
:10310000012026E040F239610120C2F2000108707E
:1031100042F27840C2F20000C0F800A042F26E40D5
:10312000C2F20000A0F800A042F27C40C2F200000F
:10313000C0F800A040F63C00C2F20000C0F800A0B9
:103140000620FDF7B7FA1BE040F238610120C2F219
:103150000001087042F27840C2F20000C0F800A0FE
:1031600042F26E40C2F20000A0F800A042F27C40A1
:10317000C2F20000C0F800A00620FDF78FFA00BFE1
:1031800042F28840C2F20000007801287FF4EAADE4
:10319000CEE5000080B582B001AA6B4600F01AF8B7
:1031A00001980099000640EA112002B080BD00009D
:1031B00010B582B014466A4601AB00F033F80098AF
:1031C000019AC4F12001884022FA04F1084302B0B8
:1031D00010BD00008446002848BFC0F1000C10B5A7
:1031E0004FEA1C4E1FFA8CFC8CB20EFB04FE0CFB4B
:1031F00004F414EB0E4C4FEA1E4444F1000EB0F1FF
:10320000FF3F0ADC49B16FEA0E00BCF1000FCCF1C0
:10321000000C08BFCEF100008646C2F800E0C3F8FB
:1032200000C010BDF0B54FEA104C80B24FEA114E0D
:1032300089B20EFB00F5484301FB0CF410EB05408E
:103240004FF0000141F1000100EB04460227B0EB12
:10325000054F28BF012786420EFB0CF000EB1540FE
:1032600000EB144028BF0F46384410601E60F0BDCC
:1032700080B5FEF729FD0120FEF7DAFDFEF7EAFD35
:103280000128FBD102200921FEF7D0FC0120FEF726
:10329000C7FC00BFFEF7E6FC0128FBD10020FEF7CB
:1032A000FFFC0120FEF7F6FC4FF48070FEF702FDF4
:1032B0004CF2D000C2F2C5300121FEF701FE80BD04
:1032C00010B548F20004C4F20B0420461021FDF7AB
:1032D000B3FA20462021FDF7AFFA20464021FDF742
:1032E000ABFA10BD10B548F20004C4F20B0420463E
:1032F0001021FDF7ADFA20462021FDF7A9FA20465E
:103300004021FDF7A5FA10BD0860C017486070475E
:103310002DE9F041904605461E460F469942B8BF3A
:103320000226B200404629461C46FCF737FFA7425A
:1033300007DA022EC8BFBDE8F0816868C017C8F878
:103340000800BDE8F081000080B56FF0030303EBD7
:10335000820350F803C051F803E00CF0004C0EF06B
:1033600000439C4515D1012A1ADBA1F1040C043855
:1033700050F822305CF822108B4201D1013AF7DC80
:103380004FF0FF328B4288BF0122581A18BF1046F7
:1033900080BD4FF0FF30BCF1000F08BF012080BDA1
:1033A000002080BD2DE9F04381B044684F681D4680
:1033B0000E46B4F1FF3F904605DD02212A46022366
:1033C000FFF7A6FF03E029460222FDF7E3F8DDF848
:1033D00020903046B7F1FF3F05DD02214A46022327
:1033E000FFF796FF03E049460222FDF7D3F828468F
:1033F0004946424600F048FAB0F1FF3F07DD87EA50
:103400000400B0F1FF3F0ADD01B0BDE8F083B4F184
:10341000FF3F16DDFDF7D4F801B0BDE8F08340466C
:10342000FDF782F8002818BF00F04CFC40F2C840BD
:10343000C2F2000001460322FDF7ACF801B0BDE87E
:10344000F083FDF7C9F801B0BDE8F08380B5022232
:10345000FFF77AFFB0FA80F0400980BD80B50146E1
:1034600040F2BC50C2F200000222FFF76DFF0021C3
:103470000028C8BF0121084680BD000080B5FFF7C5
:1034800063FF00210128B8BF0121084680BD00006C
:1034900080B50222FFF758FFC00F80BD2DE9F04F25
:1034A00087B0029000EB810050F8040C109D06904C
:1034B00010680C460590A900184699460492FCF73E
:1034C0009FFE012C03944DDB4FF0010E0022CDF83E
:1034D000049003E003981A46984243D00298069F4E
:1034E00050F822000023C14311EB0E0143F1000309
:1034F000002F54BF01469E46080C8FB20499059BCD
:103500000968002B48BF49420C0C1FFA81F859F892
:10351000221008FB00FA08FB071C04FB07FB0CEB5E
:103520000A41531C01EB0B46AB4249F82260D1DA49
:10353000604308FB07F700EB1A404FEA0A4800EB2C
:103540001B40BC454FEA0B4938BF0130414538BFED
:1035500001304E45DDF8049038BF013009EB82019F
:103560004860B7E7069805994840B0F1FF3F0EDC88
:10357000012D0CDBA9F104000121002250F8043FC9
:10358000DB435B1842F10001013D0360F6D107B057
:10359000BDE8F08F2DE9F04F099CD71702EBD767F4
:1035A00000EB810656F8045C04EB67184FEA671AD3
:1035B0008845464627F01F07C8BF0E46B2EB0709ED
:1035C0004FEAE57E1AD050F82A500AF10102B242C1
:1035D00024DAC9F1200B00EB820CAAEB06020026CC
:1035E00025FA09F75CF8265005FA0BF43C4343F83A
:1035F0002640013694190134F2D110E056451DDD04
:10360000A6EB0A0100EB8A02002000BF52F82070EE
:1036100043F8207001308142F8D110E0002688453F
:103620007146B8BF8168C9F1200225FA09F09140BE
:10363000099C084343F82600701C00E00020A042CB
:10364000A8BFBDE8F08F211A03EB8000043800BF4B
:10365000013940F804EFFBD1BDE8F08F10B582B01E
:1036600042F2A842C2F20002127845F6E873C0F6B0
:1036700000039A5C002340EA02100093ADF8043086
:103680008DF8000008BA6C46CDF8010020460621EE
:10369000FFF7E0F88DF8050048F20000C4F20300DF
:1036A0002146062200F06EFC02B010BD80B540F24B
:1036B0003C6045F6EC71C2F20000C0F600014FF428
:1036C0000072FCF76BFD80BD2DE9F04F85B00190D5
:1036D00000EB81000E9D50F8040C0C460490A900EC
:1036E000184698460392FCF78BFD012C02944BDBA5
:1036F0004FF0010E0022CDF8008003E002981A4638
:10370000984241D00198002350F82200049FC14301
:1037100011EB0E0143F10003B7F1FF3FCCBF0146AF
:103720009E46039B080C1B681FFA81FC58F8221068
:103730001FFA83FB0BFB0C111E0C0BFB00F906FBA5
:103740000CFA01EB0944531C04EB0A47AB4248F85E
:103750002270D3DA70430BFB0CFC00EB19404FEAEC
:10376000094B00EB1A4061454FEA0A4838BF013067
:103770005C4538BF01304745DDF8008038BF013077
:1037800008EB82014860B9E70498B0F1FF3F0EDC16
:10379000012D0CDBA8F104000121002250F8043FA8
:1037A000DB435B1842F10001013D0360F6D105B037
:1037B000BDE8F08F10B50024C4F207042046FEF7E0
:1037C000C1FC2420C4F202004FF0E061016000203F
:1037D000E06020602720606041F2A860A060802047
:1037E000A06520460021FEF769FC4FF40040A0626E
:1037F00010BD000010B548F20004C4F207042046D2
:10380000FEF7A0FC002020600420606045F26010FC
:10381000A06020460021FEF751FC0220A0650F2089
:10382000FCF754FF10BD000010B50024C4F20804DA
:103830002046FEF787FC002020600320606043F2F2
:10384000D400A06020460021FEF738FC0220A065CD
:103850001020FCF73BFF10BD4DF6A221CCF60F1156
:10386000016000214160704740F2B040C2F20000A8
:103870000168406840F2B842C2F200025060002085
:1038800011609060704700002DE9F04F90B08B46BA
:103890000D1D6FF0070C0023002700BF55F82710FF
:1038A00049B9B91C0CF1040C013F203B0129F5D8A2
:1038B0004FF0FF3E1EE040F2C846C2F20006002173
:1038C000B1607160316007F1020A01246FF04001BC
:1038D00050F824602EB9661C013C2031012EF7D827
:1038E00002E0661C564509DA4368016853601160BE
:1038F0004FF0050E704610B0BDE8F08F0026566000
:103900001660BCB155F827E00A9550F824504FEAEC
:103910005E06B6FA86F86E08BAF1020FB6FA86F6B7
:1039200018DBB04516D2436801684FF0060E5360AD
:103930001160DFE70068DBF800104FF0070EB0FB06
:10394000F1F303FB110040F2C841C2F200010B6029
:103950001060CFE73144C8F12109C6F12105494281
:103960000C950F91A3EB0801B9F1200F4FF0FF3533
:1039700018D0BAF1020F0CDBDBF80050A8F10106F9
:103980000EFA06FE25FA09F646EA0E06AE46CBF812
:103990000460A8F101060EFA06F5CBF800504FF0CE
:1039A000FF35B540019241317A1CCDF82C800D9144
:1039B0004FF0FF38ABF104016FF00702CDF8009033
:1039C000059508BFA846CDF81CB00291D11ADDF8C4
:1039D00028B00C9E09914FF0020900210E91CDF8FC
:1039E0002080CDF810A0039007E000BF4FF0030E39
:1039F00000230022002B00F00281202E17D050F867
:103A00002420012C0ADBC6F12003354606689A40C3
:103A100026FA05F31A43426032462E460E998B1B56
:103A200003F12001C6F120039A400E91026050F884
:103A300024E05BF827200EEA0803934218D1BAF17C
:103A4000020F1BDB079900EB840252F8042C0B6871
:103A5000059D314602EA05069A424FF0FF3588BFC0
:103A60000125F21A18BF2A46DDF828B00E4606E0F6
:103A700096454FF0FF3288BF012200E000220F9BE5
:103A80000D998B4201D8002AB0D40F99DDF82C8013
:103A9000002A08EB010309990B44A3F1390541D031
:103AA000B2F1FF3F11DC012C06DB02684FEA4E0643
:103AB00046EAD276964646600E994FEA4E020131AA
:103AC000A3F13A051F2602600E91BAF1010F0C9680
:103AD00038DB029B00EB840E4FF0000A6646069529
:103AE0000EEB0602D2F804B053F8048F0025ABEBBE
:103AF0000801A1EB0A08D8454FF0000128BF0121B9
:103B000088BF0125BAF1000F18BF0D460436AA463A
:103B1000C2F80480E4D1DDF810A00398DDF828B0E5
:103B2000069D0FE022460C96BAF1020FA2BF0021BB
:103B300040F82410621E079950F822600B68F31AAF
:103B400040F82230E91705EBD16140F2C8464A112E
:103B500021F01F01C2F20006691A56F82230012531
:103B600005FA01F11943B9F1010F46F8221019DBEA
:103B70000C9E00EB840200BF116831B9B9F1010954
:103B8000A2F10402F8DC4FF00009D1450DDAB9F1D9
:103B9000000F28D04FF0040E00244FF0010900233D
:103BA000002227E00C9ED145F1DBA9F1010450F879
:103BB00024100E9A4908B1FA81F1C1F1210611448D
:103BC000C1EB44110D9B21310F9199424FF000033D
:103BD0004FF000014FF0000228BF012338BF012140
:103BE0004FEA410E06E001224FF0000900234FF09A
:103BF000010E00BFDDF82080002B7FF4FEAE3AB14D
:103C000000680199DDF80090DDF81C8008603BE059
:103C10000E9B019FD91703EBD16222F01F01DDF843
:103C20000090DDF81C80B3EB010C4FEA621618D04F
:103C300050F82630B44222DD00EB8600CCF12001A2
:103C4000A21B061D002000BF23FA0CF556F82030F9
:103C500003FA01F4254347F8205001308242F3D1A2
:103C60000EE0BAF1010F0FDB00EB8600002150F8E7
:103C7000212047F8212001318A45F8D104E00020B5
:103C800023FA0CF147F82010B9F1200F3FF432AEBF
:103C9000D8F80000BAF1020F0CDB0B9BD8F8042017
:103CA000591EC84002FA09F10843C8F80000012172
:103CB000104601E00B9B00215A1ED04048F821001D
:103CC00018E6000040F2C8424FF0000C0121C2F299
:103CD0000002002352F82300401842F8230003F1A9
:103CE00001034CF10001032BF4D17047B0B540F251
:103CF000B04EC2F2000E4FF0000CCEF804C0CEF869
:103D000000C000680968030C80B20A0C89B201FB8C
:103D100003F402FB00F5484310EB04404CF10001B2
:103D200010EB0540CEF8000002FB03F000EB14405E
:103D300000EB15404841CEF80400B0BD2DE9F0433A
:103D4000DDF81CC000EB810757F804EC6145C8BFE3
:103D50000221012913DBC2F12008051F1E1F0020CC
:103D60000F4600BF20FA08F955F8040F013F00FA8A
:103D700002F444EA090446F8044FF3D101E00020BC
:103D8000002161454FEAEE7E08DAC2F12004E040EE
:103D90000EFA02F2104343F8210001316145A8BF39
:103DA000BDE8F083ACEB010003EB8101043900BFF7
:103DB000013841F804EFFBD1BDE8F08370B5CB17B3
:103DC00001EBD36323F01F04B1EB040C4FEA63143F
:103DD0001DD050F824303F292CDC254600EB840010
:103DE000012CD8BF0125011D281BCCF1200E441C3D
:103DF000002000BF23FA0CF551F8203003FA0EF62C
:103E0000354342F8205001308442F3D113E05F295A
:103E100017DC2146022CD8BF0221091B4B1C00EBEA
:103E20008400002150F8216042F8216001318B426A
:103E3000F8D107E0002023FA0CF142F82010411CD1
:103E400000E000210229C8BF70BD02EB81000C22F6
:103E5000A2EB8101FCF7D4F970BD0000B0B584B0CD
:103E60000024C4F203040025204603950295019521
:103E70000095FEF767FB20460021FEF733FB4FF469
:103E8000E1300090602001904FF44070ADF80C00DC
:103E9000694620460295FEF775FB20461021012257
:103EA000FEF768FB20460121FEF740FB04B0B0BDE1
:103EB000B0B584B048F20004C4F2030400252046E3
:103EC0000395029501950095FEF73CFB20460021E5
:103ED000FEF708FB4FF4E13000906020C0F20800CC
:103EE00001904FF44070ADF80C00694620460295F1
:103EF000FEF748FB204610210122FEF73BFB20463F
:103F00000121FEF713FBFCF7EDFB04B0B0BD000090
:103F10002DE9F04F81B04EF21805CEF200052E6863
:103F200042B348F6AD3B1C469046894607464FF0E3
:103F3000000AC6F6DB0B06E080FB0B01C81300EBA2
:103F4000D170A0421AD838464021FEF70DFB40B987
:103F50002868301AB0F1FF3FEEDC55F8041C084425
:103F6000EAE73846FEF754FB0AF1010AC24509F8B0
:103F7000010BE8D1012001B0BDE8F08F002001B0B5
:103F8000BDE8F08FF0B581B08AB114460D46064603
:103F9000002700BF30468021FEF7E6FA0028F9D05E
:103FA000E95D3046FEF738FB0137A742F2D101B098
:103FB000F0BD000000000000000000000000004014
:103FC00054FB211900000001000200030004000559
:103FD00000060007FF07FF08FF09FE0AFE0BFD0CA5
:103FE000FC0DFC0EFB0FFA10F811F712F613F41487
:103FF000F215F016EE17EC18E919E71AE41BE01CAD
:10400000DD1DDA1ED61FD220CD21C922C423BF2434
:10401000B925B426AE27A828A1299A2A932B8B2C40
:10402000842D7B2E732F6A30613157324D334334E8
:1040300038352D36223716380939FD39F03AE23B4A
:10404000D43CC63DB73EA83F98408841774266437E
:104050005444424530461D470948F548E149CC4A99
:10406000B64BA04C8A4D734E5B4F43502B511152AF
:10407000F852DD53C354A7558C566F5752583459D4
:10408000165AF85AD85BB95C985D775E565F336014
:104090001161ED61C962A5637F645A6533660C677F
:1040A000E567BD6894696A6A406B166CEA6CBE6D20
:1040B000926E656F37700871D971AA7279734874FE
:1040C0001775E475B2767E774A781579E079AA7A21
:1040D000737B3B7C037DCB7D917E587F1D80E2808E
:1040E000A68169822C83EE83B08470853186F08648
:1040F000AF876D882B89E889A48A608B1B8CD58C4F
:104100008F8D488E008FB88F6F902691DC919192A1
:104110004593F993AC945F951196C2967397239843
:10412000D3988199309ADD9A8A9B369CE29C8D9D2A
:10413000379EE19E8A9F32A0DAA082A128A2CEA259
:1041400074A318A4BCA460A503A6A5A647A7E8A7C6
:1041500089A828A9C8A966AA04ABA2AB3FACDBAC6E
:1041600077AD12AEACAE46AFE0AF78B010B1A8B14B
:104170003FB2D5B26BB300B495B429B5BDB550B656
:10418000E2B674B705B896B826B9B6B945BAD3BA87
:1041900061BBEFBB7BBC08BD93BD1FBEA9BE33BFD7
:1041A000BDBF46C0CFC057C1DEC165C2EBC271C33F
:1041B000F7C37BC400C583C507C68AC60CC78EC7B4
:1041C0000FC890C810C9090909090909090909098D
:1041D000090909090909090909090909090909094F
:1041E000090909090909090909090909090909093F
:1041F000090909090909090909090909090909092F
:10420000090909090909090909090909090909091E
:10421000090909090909090909090909090909090E
:1042200009090909090909090909090909090909FE
:1042300009090909090909090909090909090909EE
:1042400009090909090909090909090909090909DE
:1042500009090909090909090808080808080808D6
:1042600008080808080808080808080808080808CE
:1042700008080808080808080808080808080808BE
:1042800008080808080808080808080808080808AE
:1042900008080807070707070707070707070707AB
:1042A000070707070707070707070707070707079E
:1042B000070707070707070707070707070707078E
:1042C0000707070707060606060606060606060689
:1042D000060606060606060606060606060606067E
:1042E000060606060606060606060606060606066E
:1042F000050505050505050505050505050505056E
:10430000050505050505050505050505050505055D
:104310000505050505050505040404040404040455
:10432000040404040404040404040404040404044D
:104330000404040404040403030303030303030346
:10434000030303030303030303030303030303033D
:104350000303030303030303020202020202020235
:10436000020202020202020202020202020202022D
:104370000202020202020202020202020201010120
:104380000101010101010201010101000000000021
:1043900000FFFFFFFFFFFFFFFFFFFFFFFFFFFFFF2C
:1043A000FFFFFFFFFFFFFEFEFEFEFEFEFEFEFEFE27
:1043B000FEFEFEFEFEFEFEFEFEFEFEFEFEFEFEFE1D
:1043C000FEFEFEFEFDFDFDFDFDFDFDFDFDFDFDFD19
:1043D000FDFDFDFDFDFDFDFDFDFDFDFDFDFDFDFC0E
:1043E000FCFCFCFCFCFCFCFCFCFCFCFCFCFCFCFC0D
:1043F000FCFCFCFCFCFCFCFCFCFCFCFCFBFBFBFB01
:10440000FBFBFBFBFBFBFBFBFBFBFBFBFBFBFBFBFC
:10441000FBFBFBFBFBFBFBFBFBFBFBFBFBFBFBFBEC
:10442000FBFBFAFAFAFAFAFAFAFAFAFAFAFAFAFAEA
:10443000FAFAFAFAFAFAFAFAFAFAFAFAFAFAFAFADC
:10444000FAFAFAFAF9F9F9F9F9F9F9F9F9F9F9F9D8
:10445000F9F9F9F9F9F9F9F9F9F9F9F9F9F9F9F9CC
:10446000F9F9F9F9F9F9F9F9F9F9F9F9F9F9F9F8BD
:10447000F8F8F8F8F8F8F8F8F8F8F8F8F8F8F8F8BC
:10448000F8F8F8F8F8F8F8F8F8F8F8F8F8F8F8F8AC
:10449000F8F8F8F8F8F8F8F8F8F8F8F8F8F8F7F79E
:1044A000F7F7F7F7F7F7F7F7F7F7F7F7F7F7F7F79C
:1044B000F7F7F7F7F7F7F7F7F7F7F7F7F7F7F7F78C
:1044C000F7F7F7F7F7F7F7F7F7F7F7F7F7F7F7F77C
:1044D000F7F7F7F7F7F7F7F7F7F7F7F7F7F7F7F76C
:1044E000F7F7F6F6F6F6F6F6F6F6F6F6F6F6F6F66A
:1044F000F6F6F6F6F6F6F6F6F6F6F6F6F6F6F6F65C
:10450000F6F6F6F6F6F6F6F6F6F6F6F6F6F6F6F64B
:10451000F6F6F6F6F6F6F6F6F6F6F6F6F6F6F6F63B
:10452000F6F6F6F6F6F6F6F6F6F6F6F6F6F6F6F62B
:10453000F6F6F6F6F6F6F6F6F6F6F6F6F6F6F6F61B
:10454000F6F6F6F6F6F6F6F6F6F6F6F6F6F6F6F60B
:10455000F6F6F6F6F6F6F6F6F6F6F6F6F6F6F6F6FB
:10456000F6F6F6F6F6F6F6F6F6F6F6F6F6F6F6F6EB
:10457000F6F6F6F6F6F6F6F6F6F6F6F6F6F6F6F6DB
:10458000F6F6F6F6F6F6F6F6F6F6F6F6F6F6F6F6CB
:10459000F6F6F6F6F6F6F6F6F6F6F6F6F6F6F6F6BB
:1045A000F6F6F6F6F6F6F6F6F6F6F6F6F6F7F6F6AA
:1045B000F6F6F6F7F7F7F7F7F7F7F7F7F7F7F7F78E
:1045C000F7F7F7F7F7F7F7F7F7F7F7F7F7F7F7F77B
:1045D000F7F7F7F7F7F7F7F7F7F7F7F7F7F7F7F76B
:1045E000F7F7F7F7F7F7F7F7F7F7F7F7F7F7F7F75B
:1045F000F7F8F8F8F8F8F8F8F8F8F8F8F8F8F8F83C
:10460000F8F8F8F8F8F8F8F8F8F8F8F8F8F8F8F82A
:10461000F8F8F8F8F8F8F8F8F8F8F8F8F8F8F8F81A
:10462000F8F8F8F8F9F9F9F9F9F9F9F9F9F9F9F9FE
:10463000F9F9F9F9F9F9F9F9F9F9F9F9F9F9F9F9EA
:10464000F9F9F9F9F9F9F9F9F9F9F9F9F9F9F9F9DA
:10465000F9FAFAFAFAFAFAFAFAFAFAFAFAFAFAFABB
:10466000FAFAFAFAFAFAFAFAFAFAFAFAFAFAFAFAAA
:10467000FAFAFAFAFAFAFAFBFBFBFBFBFBFBFBFB91
:10468000FBFBFBFBFBFBFBFBFBFBFBFBFBFBFBFB7A
:10469000FBFBFBFBFBFBFBFBFBFBFBFBFBFBFBFB6A
:1046A000FBFBFCFCFCFCFCFCFCFCFCFCFCFCFCFC4C
:1046B000FCFCFCFCFCFCFCFCFCFCFCFCFCFCFCFC3A
:1046C000FCFCFCFDFDFDFDFDFDFDFDFDFDFDFDFD1D
:1046D000FDFDFDFDFDFDFDFDFDFDFDFDFDFDFDFD0A
:1046E000FDFDFDFDFEFEFEFEFEFEFEFEFEFEFEFEEE
:1046F000FEFEFEFEFEFEFEFEFEFEFEFEFEFEFEFEDA
:10470000FEFEFEFEFEFEFEFFFFFFFFFFFFFF0000BE
:104710000000000000000000000000000000000099
:104720000000000000000001010101010101010180
:104730000101010101010101010101010101010169
:10474000010101010102020202020202020202024E
:104750000202020202020202020202020202020239
:10476000020202020303030303030303030303031D
:104770000303030303030303030303030303030309
:1047800003030303030303030304040404040404F2
:1047900004040404040404040404040404040404D9
:1047A00004040404040404040404040404050505C6
:1047B00005050505050505050505050505050505A9
:1047C0000505050505050505050505050505050599
:1047D000050506060606060606060606060606067B
:1047E0000606060606060606060606060606060669
:1047F0000606060606060606060606070707070754
:104800000707070707070707070707070707070738
:104810000707070707070707070707070707070728
:104820000707070707070707070708080808080812
:1048300008080808080808080808080808080808F8
:1048400008080808080808080808080808080808E8
:1048500008080808080808080808080808080808D8
:1048600009090909090909090909090909090909B8
:1048700009090909090909090909090909090909A8
:104880000909090909090909090909090909090998
:104890000909090909090909090909090909090988
:1048A0000909090909090909090909090909090978
:1048B0000909090909090909090909090909090968
:1048C0000909090909090909090909090909090958
:1048D0000909090909090909090909090909090948
:1048E0000909090909090909090909090909090938
:1048F0000909090909090909090909090909090928
:104900000909090909090909090909090909090917
:104910000909090909090909090909090909090907
:1049200009090909090909090909090909090909F7
:1049300009090909090909090909090909090909E7
:1049400009090909090909090909090909090909D7
:1049500009090909090909090909090909090909C7
:1049600008080808080808080808080808080808C7
:1049700008080808080808080808080808080808B7
:1049800008080808080808080808080808080808A7
:104990000808080808080808080808080808080798
:1049A0000707070707070707070707070707070797
:1049B0000707070707070707070707070707070787
:1049C000070707070707070707070707070606067A
:1049D0000606060606060606060606060606060677
:1049E0000606060606060606060606060606060667
:1049F0000606060606060605050505050505050560
:104A00000505050505050505050505050505050556
:104A10000505050505050505050505050505050546
:104A20000504040404040404040404040404040445
:104A30000404040404040404040404040404040436
:104A40000404040403030303030303030303030332
:104A50000303030303030303030303030303030326
:104A60000303020202020202020202020202020224
:104A70000202020202020202020202020202020216
:104A80000101010101010101010101010102020213
:104A9000020101000000000000FFFFFFFFFFFFFF19
:104AA000FFFFFFFFFFFFFFFFFFFFFFFFFFFFFFFF16
:104AB000FEFEFEFEFEFEFEFEFEFEFEFEFEFEFEFE16
:104AC000FEFEFEFEFEFEFEFEFEFEFDFDFDFDFDFD0C
:104AD000FDFDFDFDFDFDFDFDFDFDFDFDFDFDFDFD06
:104AE000FDFDFDFDFDFCFCFCFCFCFCFCFCFCFCFC01
:104AF000FCFCFCFCFCFCFCFCFCFCFCFCFCFCFCFCF6
:104B0000FCFCFCFBFBFBFBFBFBFBFBFBFBFBFBFBF2
:104B1000FBFBFBFBFBFBFBFBFBFBFBFBFBFBFBFBE5
:104B2000FBFBFBFBFBFBFBFAFAFAFAFAFAFAFAFADE
:104B3000FAFAFAFAFAFAFAFAFAFAFAFAFAFAFAFAD5
:104B4000FAFAFAFAFAFAFAF9F9F9F9F9F9F9F9F9CE
:104B5000F9F9F9F9F9F9F9F9F9F9F9F9F9F9F9F9C5
:104B6000F9F9F9F9F9F9F9F9F9F9F9F9F9F9F9F9B5
:104B7000F9F9F9F8F8F8F8F8F8F8F8F8F8F8F8F8B2
:104B8000F8F8F8F8F8F8F8F8F8F8F8F8F8F8F8F8A5
:104B9000F8F8F8F8F8F8F8F8F8F8F8F8F8F8F7F797
:104BA000F7F7F7F7F7F7F7F7F7F7F7F7F7F7F7F795
:104BB000F7F7F7F7F7F7F7F7F7F7F7F7F7F7F7F785
:104BC000F7F7F7F7F7F7F7F7F7F7F7F7F7F7F7F775
:104BD000F7F7F7F7F7F7F7F7F7F7F7F7F7F7F6F667
:104BE000F6F6F6F6F6F6F6F6F6F6F6F6F6F6F6F665
:104BF000F6F6F6F6F6F6F6F6F6F6F6F6F6F6F6F655
:104C0000F6F6F6F6F6F6F6F6F6F6F6F6F6F6F6F644
:104C1000F6F6F6F6F6F6F6F6F6F6F6F6F6F6F6F634
:104C2000F6F6F6F6F6F6F6F6F6F6F6F6F6F6F6F624
:104C3000F6F6F6F6F6F6F6F6F6F6F6F6F6F6F6F614
:104C4000F6F6F6F6F6F6F6F6F6F6F6F6F6F6F6F604
:104C5000F6F6F6F6F6F6F6F6F6F6F6F6F6F6F6F6F4
:104C6000F6F6F6F6F6F6F6F6F6F6F6F6F6F6F6F6E4
:104C7000F6F6F6F6F6F6F6F6F6F6F6F6F6F6F6F6D4
:104C8000F6F6F6F6F6F6F6F6F6F6F6F6F6F6F6F6C4
:104C9000F6F6F6F6F6F6F6F6F6F6F6F6F6F6F6F6B4
:104CA000F6F6F6F6F6F6F6F6F6F6F6F6F6F6F6F6A4
:104CB000F6F6F6F6F6F6F6F6F6F6F6F6F6F6F6F694
:104CC000F6F7F7F7F7F7F7F7F7F7F7F7F7F7F7F775
:104CD000F7F7F7F7F7F7F7F7F7F7F7F7F7F7F7F764
:104CE000F7F7F7F7F7F7F7F7F7F7F7F7F7F7F7F754
:104CF000F7F7F7F7F7F7F7F7F7F7F7F7F7F7F7F744
:104D0000F8F8F8F8F8F8F8F8F8F8F8F8F8F8F8F823
:104D1000F8F8F8F8F8F8F8F8F8F8F8F8F8F8F8F813
:104D2000F8F8F8F8F8F8F8F8F8F8F8F8F8F8F8F803
:104D3000F8F8F9F9F9F9F9F9F9F9F9F9F9F9F9F9E5
:104D4000F9F9F9F9F9F9F9F9F9F9F9F9F9F9F9F9D3
:104D5000F9F9F9F9F9F9F9F9F9F9F9F9FAFAFAFABF
:104D6000FAFAFAFAFAFAFAFAFAFAFAFAFAFAFAFAA3
:104D7000FAFAFAFAFAFAFAFAFAFAFAFAFAFAFAFA93
:104D8000FAFAFBFBFBFBFBFBFBFBFBFBFBFBFBFB75
:104D9000FBFBFBFBFBFBFBFBFBFBFBFBFBFBFBFB63
:104DA000FBFBFBFBFBFBFBFBFBFBFBFBFBFCFCFC50
:104DB000FCFCFCFCFCFCFCFCFCFCFCFCFCFCFCFC33
:104DC000FCFCFCFCFCFCFCFCFCFCFCFCFDFDFDFD1F
:104DD000FDFDFDFDFDFDFDFDFDFDFDFDFDFDFDFD03
:104DE000FDFDFDFDFDFDFDFDFDFDFDFDFDFEFEFEF0
:104DF000FEFEFEFEFEFEFEFEFEFEFEFEFEFEFEFED3
:104E0000FEFEFEFEFEFEFEFEFEFEFEFEFEFEFEFFC1
:104E1000FFFFFFFFFFFF0000000000000000000098
:104E20000000000000000000000000000000000082
:104E30000101010101010101010101010101010162
:104E4000010101010101010101010101020202024E
:104E50000202020202020202020202020202020232
:104E6000020202020202020202020202030303031E
:104E70000303030303030303030303030303030302
:104E800003030303030303030303030303030303F2
:104E900003030404040404040404040404040404D4
:104EA00004040404040404040404040404040404C2
:104EB00004040404040505050505050505050505A7
:104EC0000505050505050505050505050505050592
:104ED000050505050505050505050506060606067D
:104EE0000606060606060606060606060606060662
:104EF0000606060606060606060606060606060652
:104F00000607070707070707070707070707070732
:104F10000707070707070707070707070707070721
:104F20000707070707070707070707070707070711
:104F300007070808080808080808080808080808F3
:104F400008080808080808080808080808080808E1
:104F500008080808080808080808080808080808D1
:104F600008080808080808080809090909090909BA
:104F700009090909090909090909090909090909A1
:104F80000909090909090909090909090909090991
:104F90000909090909090909090909090909090981
:104FA0000909090909090909090909090909090971
:104FB0000909090909090909090909090909090961
:104FC0000909090909090909090909090909090951
:104FD000090909090909000000000000000000009B
:104FE00000000000000000000000000000000000C1
:104FF00000000000000000000000000101010101AC
:105000000101010101010101010101010101010190
:105010000101010101020202020202020202020275
:105020000202020202020202020202020202020260
:105030000303030303030303030303030303030340
:105040000303030303030303040404040404040428
:105050000404040404040404040404040404040410
:1050600004040505050505050505050505050505F2
:1050700005050505050505050505050505050606DE
:1050800006060606060606060606060606060606C0
:1050900006060606060606060606060607070707AC
:1050A0000707070707070707070707070707070790
:1050B000070707070707070707070708080808087B
:1050C0000808080808080808080808080808080860
:1050D0000808080808080808080808080808080850
:1050E0000809090909090909090909090909090931
:1050F0000909090909090909090909090909090920
:1051000009090909090909090A0A0A0A0A0A0A0A07
:105110000A0A0A0A0A0A0A0A0A0A0A0A0A0A0A0AEF
:105120000A0A0A0A0A0A0A0A0A0A0A0A0A0A0A0ADF
:105130000A0A0A0A0A0A0A0A0A0A0A0A0A0A0A0ACF
:105140000A0B0B0B0B0B0B0B0B0B0B0B0B0B0B0BB0
:105150000B0B0B0B0B0B0B0B0B0B0B0B0B0B0B0B9F
:105160000B0B0B0B0B0B0B0B0B0B0B0B0B0B0B0B8F
:105170000B0B0B0B0B0B0B0B0B0B0B0B0B0B0B0B7F
:105180000B0B0B0B0B0B0B0B0B0B0B0B0B0B0B0B6F
:105190000B0B0B0B0B0B0B0B0B0B0B0B0B0B0B0B5F
:1051A0000B0B0B0B0B0B0B0B0B0B0B0B0B0B0B0B4F
:1051B0000B0B0B0B0B0B0B0B0B0B0B0B0B0B0B0B3F
:1051C0000B0B0B0B0B0B0B0B0B0B0B0B0B0B0B0B2F
:1051D0000B0B0B0B0B0B0B0B0B0B0B0B0B0B0B0B1F
:1051E0000B0B0B0B0B0B0B0B0B0B0B0B0B0B0B0B0F
:1051F0000B0B0B0B0B0B0B0B0B0B0B0B0B0B0B0BFF
:105200000B0B0B0B0B0B0B0B0B0B0B0B0B0B0B0BEE
:105210000B0B0B0B0B0B0B0B0B0B0B0B0B0B0A0AE0
:105220000A0A0A0A0A0A0A0A0A0A0A0A0A0A0A0ADE
:105230000A0A0A0A0A0A0A0A0A0A0A0A0A0A0A0ACE
:105240000A0A0A0A0A0A0A0A0A0A0A0A0A0A0A0ABE
:105250000A09090A0A0A0A090909090909090909B9
:1052600009090909090909090909090909090909AE
:1052700009090909090909090909090908080808A2
:10528000080808080808080808080808080808089E
:10529000080808080808080808080808080808088E
:1052A000080807070707070707070707070707078C
:1052B0000707070707070707070707070706060681
:1052C000060606060606060606060606060606067E
:1052D0000606060606060606060505050505050575
:1052E000050505050505050505050505050505056E
:1052F0000505050505050505040404040404040466
:10530000040404040404040404040404040404045D
:10531000030303030303030303030303030303035D
:105320000303030303030303030303020202020252
:10533000020202020202020202020202020202024D
:105340000202020202020202020101010101010144
:105350000101010101010101010000000000000044
:10536000000000000000000000000000000000003D
:10537000000000000000000000000000000000002D
:10538000000000000000000000000000000000001D
:10539000000000000000000000000000000000000D
:105DE0000000000000000000FF7FF67FD97FA77F42
:105DF000627F0A7F9D7E1E7E8A7DE47C2A7C5D7B9D
:105E00007D7A8A7985786C7742760575B673557296
:105E1000E3705F6FCA6D246C6E6AA768D066E96430
:105E2000F262EC60D75EB45C825A4358F6559B53DD
:105E30003451C04E404CB4491D477B44CE41173FBE
:105E4000573C8D39BA36DF33FC30112E1F2B2728F3
:105E5000282524221A1F0C1CF918E215C812AB0FB2
:105E60008C0C6B09480624030000DCFCB8F995F69D
:105E700074F355F038ED1EEA07E7F4E3E6E0DCDD05
:105E8000D8DAD9D7E1D4EFD104CF21CC46C973C633
:105E9000A9C3E9C032BE85BBE3B84CB6C0B340B1BC
:105EA000CCAE65AC0AAABDA77EA54CA329A1149FC0
:105EB0000E9D179B309959979295DC933692A1903D
:105EC0001D8FAB8D4A8CFB8ABE8994887B87768632
:105ED0008385A384D6831C837682E2816381F680E6
:105EE0009E80598027800A8001800A8027805980FF
:105EF0009E80F6806381E28176821C83D683A384B0
:105F0000838576867B879488BE89FB8A4A8CAB8D95
:105F10001D8FA1903692DC93929559973099179BDB
:105F20000E9D149F29A14CA37EA5BDA70AAA65AC0E
:105F3000CCAE40B1C0B34CB6E3B885BB32BEE9C00D
:105F4000A9C373C646C921CC04CFEFD1E1D4D9D7B8
:105F5000D8DADCDDE6E0F4E307E71EEA38ED55F0D9
:105F600074F395F6B8F9DCFC0000240348066B09CD
:105F70008C0CAB0FC812E215F9180C1C1A1F242246
:105F8000282527281F2B112EFC30DF33BA368D39F8
:105F9000573C173FCE417B441D47B449404CC04E4F
:105FA00034519B53F6554358825AB45CD75EEC602B
:105FB000F262E964D066A7686E6A246CCA6D5F6F8E
:105FC000E3705572B673057542766C7785788A7979
:105FD0007D7A5D7B2A7CE47C8A7D1E7E9D7E0A7FA5
:105FE000627FA77FD97FF67F0102000000002403B3
:105FF00048066B098C0CAB0FC812E215F9180C1C83
:106000001A1F2422282527281F2B112EFC30DF33AE
:10601000BA368D39573C173FCE417B441D47B449B2
:10602000404CC04E34519B53F6554358825AB45C91
:10603000D75EEC60F262E964D066A7686E6A246C91
:10604000CA6D5F6FE3705572B673057542766C77F3
:1060500085788A797D7A5D7B2A7CE47C8A7D1E7EC8
:106060009D7E0A7F627FA77FD97FF67FFF7FF67FC5
:10607000D97FA77F627F0A7F9D7E1E7E8A7DE47C1A
:106080002A7C5D7B7D7A8A7985786C774276057586
:10609000B6735572E3705F6FCA6D246C6E6AA76841
:1060A000D066E964F262EC60D75EB45C825A435811
:1060B000F6559B533451C04E404CB4491D477B4468
:1060C000CE41173F573C8D39BA36DF33FC30112EA5
:1060D0001F2B2728282524221A1F0C1CF918E2152B
:1060E000C812AB0F8C0C6B09480624030000DCFCC3
:1060F000B8F995F674F355F038ED1EEA07E7F4E3C6
:10610000E6E0DCDDD8DAD9D7E1D4EFD104CF21CC79
:1061100046C973C6A9C3E9C032BE85BBE3B84CB655
:10612000C0B340B1CCAE65AC0AAABDA77EA54CA356
:1061300029A1149F0E9D179B309959979295DC9336
:106140003692A1901D8FAB8D4A8CFB8ABE899488B4
:106150007B8776868385A384D6831C837682E281BF
:106160006381F6809E80598027800A8001800A80A2
:10617000278059809E80F6806381E28176821C832D
:10618000D683A384838576867B879488BE89FB8AA1
:106190004A8CAB8D1D8FA1903692DC9392955997C6
:1061A0003099179B0E9D149F29A14CA37EA5BDA7D6
:1061B0000AAA65ACCCAE40B1C0B34CB6E3B885BB5F
:1061C00032BEE9C0A9C373C646C921CC04CFEFD102
:1061D000E1D4D9D7D8DADCDDE6E0F4E307E71EEA5C
:1061E00038ED55F074F395F6B8F9DCFC00000700C3
:1061F0000E0015001D0024002B0032003900400065
:1062000047004F0056005D0064006B0072007A008A
:10621000810088008F0096009D00A400AC00B300B0
:10622000BA00C100C800CF00D600DE00E500EC00D7
:10623000F300FA00010108010F0117011E012501F9
:106240002C0133013A0141014801500157015E011F
:1062500065016C0173017A01810189019001970147
:106260009E01A501AC01B301BA01C101C901D00170
:10627000D701DE01E501EC01F301FA010102080298
:10628000100217021E0225022C0233023A024102BA
:1062900048024F0256025D0264026C0273027A02E7
:1062A000810288028F0296029D02A402AB02B20212
:1062B000B902C002C702CE02D502DC02E302EA0242
:1062C000F102F802000307030E0315031C03230366
:1062D0002A03310338033F0346034D0354035B0392
:1062E00062036903700377037E0384038B039203C5
:1062F0009903A003A703AE03B503BC03C303CA03FA
:10630000D103D803DF03E603ED03F403FB03020428
:1063100008040F0416041D0424042B043204390459
:10632000400447044D0454045B046204690470048F
:1063300077047E0484048B0492049904A004A704C7
:10634000AE04B404BB04C204C904D004D704DD0401
:10635000E404EB04F204F904FF0406050D0514053A
:106360001A05210528052F0536053C0543054A0574
:10637000510557055E0565056B05720579058005B4
:1063800086058D0594059A05A105A805AF05B505F7
:10639000BC05C305C905D005D705DD05E405EA053B
:1063A000F105F805FE0505060C06120619061F067E
:1063B00026062D0633063A06400647064E065406C4
:1063C0005B06610668066E0675067B068206890610
:1063D0008F0696069C06A306A906B006B606BD065D
:1063E000C306CA06D006D606DD06E306EA06F006B0
:1063F000F706FD0604070A07100717071D072407FD
:106400002A07300737073D0744074A075007570751
:106410005D0763076A07700776077D0783078907AB
:10642000900796079C07A207A907AF07B507BC0707
:10643000C207C807CE07D507DB07E107E707ED0767
:10644000F407FA07000806080C08130819081F08C3
:1064500025082B08310837083E0844084A08500828
:1064600056085C08620868086E0874087B08810892
:1064700087088D08930899089F08A508AB08B108FC
:10648000B708BD08C308C908CF08D508DB08E1086C
:10649000E708ED08F208F808FE0804090A091009DF
:1064A00016091C09220928092D09330939093F0950
:1064B00045094B09500956095C09620968096D09CB
:1064C000730979097F0984098A09900996099B094A
:1064D000A109A709AC09B209B809BD09C309C909CD
:1064E000CE09D409DA09DF09E509EB09F009F60953
:1064F000FB09010A070A0C0A120A170A1D0A220AD6
:10650000280A2D0A330A380A3E0A430A490A4E0A63
:10651000540A590A5F0A640A6A0A6F0A740A7A0AF4
