:020000040800F2
:10000000504E00207D0100087F060008FB04000818
:10001000FF04000877030008D52400080000000052
:10002000000000000000000000000000451F000864
:10003000F304000800000000E71B0008491F000847
:10004000790300087B030008D324000800000000A7
:1000500000000000F1040008E92200083D23000828
:10006000411F000800000000FD040008A50800086A
:10007000D724000800000000492100086922000878
:10008000A522000873030008000000007D0300089B
:10009000431F0008000000000000000000000000F6
:1000A00000000000000000000000000075030008D0
:1000B00097010008F5040008F7040008F904000897
:1000C00000F002F800F04AF80AA090E8000C824420
:1000D0008344AAF10107DA4501D100F03FF8AFF2FD
:1000E000090EBAE80F0013F0010F18BFFB1A43F016
:1000F000010318471C6600003C6600000A4410F823
:10010000014B14F00F0508BF10F8015B240908BF6C
:1001100010F8014B6D1E05D010F8013B6D1E01F863
:10012000013BF9D1641E03D0641E01F8015BFBD1D1
:100130009142E4D3704700000023002400250026EC
:10014000103A28BF78C1FBD8520728BF30C148BF3A
:100150000B6070471FB51FBD10B510BD00F0CFF884
:100160001146FFF7F7FF02F0DBFC00F0EDF803B4F7
:10017000FFF7F2FF03BC00F0F5F8000009488047E4
:1001800009480047FEE7FEE7FEE7FEE7FEE7FEE779
:10019000FEE7FEE7FEE7FEE704480549054A064B91
:1001A000704700005D200008C10000085048002092
:1001B000504E0020504A0020504A0020032A40F2AE
:1001C000308010F0030C00F0158011F8013BBCF1F9
:1001D000020F624498BF11F801CB00F8013B38BF11
:1001E00011F8013BA2F1040298BF00F801CB38BF1F
:1001F00000F8013B11F0030300F02580083AC0F03D
:10020000088051F8043B083A51F804CBA0E80810E4
:10021000F5E7121D5CBF51F8043B40F8043BAFF317
:100220000080D20724BF11F8013B11F801CB48BF71
:1002300011F8012B24BF00F8013B00F801CB48BFA7
:1002400000F8012B704710B5203AC0F00B80B1E8E0
:100250001850203AA0E81850B1E81850A0E81850FB
:10026000BFF4F5AF5FEA027C24BFB1E81850A0E804
:10027000185044BF18C918C0BDE810405FEA827C1E
:1002800024BF51F8043B40F8043B08BF7047D20735
:1002900028BF31F8023B48BF11F8012B28BF20F8D6
:1002A000023B48BF00F8012B70474FF0000200B539
:1002B000134694469646203922BFA0E80C50A0E889
:1002C0000C50B1F12001BFF4F7AF090728BFA0E837
:1002D0000C5048BF0CC05DF804EB890028BF40F803
:1002E000042B08BF704748BF20F8022B11F0804F45
:1002F00018BF00F8012B704770477047704775466C
:1003000000F02CF8AE4605006946534620F0070081
:10031000854618B020B5FFF73FFFBDE820404FF0FD
:1003200000064FF000074FF000084FF0000B21F0DF
:100330000701AC46ACE8C009ACE8C009ACE8C009AC
:10034000ACE8C0098D46704710B50446AFF3008095
:100350002046BDE81040FFF70ABF00000048704784
:10036000EC47002001491820ABBEFEE72600020042
:10037000704770477047FEE770477047704700004E
:100380007CB5354A93685268CDE90023002802DA2B
:1003900000F5616400E00446304B9A6B1AB1304AB4
:1003A00032F914201044DA7A0844C2EB42165DF8A0
:1003B0002250C6EB02222B4E06EB021212572A44A1
:1003C0001044B0F5E16F02DDA0F5616004E010F5C6
:1003D000E16F01DC00F561601F4A00210C3210F56D
:1003E000617F0DDA00F5E16432F814401C8400F5F9
:1003F0006170A2EB4000008858849983D98327E07C
:1004000000280BDAA2EB400424881C8459849983C9
:1004100000F5617032F81000D88319E0B0F5617F03
:100420000ADA1984598432F810109983C0F5617082
:1004300032F81000D8830BE01984A0F5617432F80B
:1004400014405C84C0F5E16032F810009883D983D1
:10045000012018707CBD0000C43D00080000002091
:1004600038250020DA440008054A1168002802D027
:1004700041F0040001E021F004001060704700002A
:1004800000000940034A116821F00101084410608E
:1004900070470000000009400149486070470000B3
:1004A00000000940054A1168002802D041F0080008
:1004B00001E021F0080010607047000000000940D2
:1004C000034A116821F002010844106070470000DF
:1004D00000000940014988607047000000000940A1
:1004E00002480021416081600160704700000940BE
:1004F00070477047704770477047FEE77047FEE7E8
:1005000010B503460020002204E053F8224004B155
:100510000120521C8A4201DA0028F6D010BD006882
:10052000704700687047F0B50025002415E050F8CA
:10053000246051F8247006EB050C674442F82470DF
:100540002DB1B74201D8012506E0002504E0B742ED
:1005500001D2012500E00025641C9C42E7DBF0BDD0
:1005600030B5012400230BE050F82350ED4325441F
:1005700041F82350A54201D2012400E000245B1C75
:100580009342F1DB30BD10B54C1E0022531E02E039
:1005900040F82230521CA242FADB491E6FF00042A2
:1005A00040F8212010BD70B506460D466C1E012C8A
:1005B00003D4A1003046FFF778FE6D1E4FF00040D7
:1005C00046F8250070BD2DE9F04107460D469046DE
:1005D0001E466C1E012C04D4A20039463046FFF79B
:1005E00032FEC8F11F00012181406D1E4FF0FF3324
:1005F00057F825200A4201D0184600E0002003EBFE
:1006000041010A408843024346F82520BDE8F081B5
:10061000F0B50025002414E050F8246051F824704F
:10062000F71B7F1B42F824702DB1B74201D301257F
:1006300006E0002504E0B74201D9012500E00025CD
:10064000641C9C42E8DBF0BD2DE9F04107460D46F5
:1006500090461E466C1E012C04D4A200394630463A
:10066000FFF7F1FD6D1EC8F12002012057F825109B
:100670009040401E014046F82510BDE8F0817047CB
:1006800000F01F02012191404009800000F1E020AC
:10069000C0F88011704700F01F020121914040090D
:1006A000800000F1E020C0F80011704700F01F0248
:1006B000012191404009800000F1E020C0F80011C4
:1006C00070470021C160016141600160816041614A
:1006D0008161C161704700002DE9FF4FD0F804909F
:1006E0008768D0F80CA0D0F81080D0F814C08269C8
:1006F0000192C26900920022012303254FF00116E6
:100700000C885EE05FEAC47B56D091F802B029EA1B
:1007100003090BFA02FB49EA0B0991F808E04FEADA
:10072000420B0EFA0BFEAF434EEA0707CDF80CB0B2
:1007300091F80AB02AEA030A0BFA02FB4AEA0B0A0A
:1007400091F803E002F1100B0EFA0BFECDF808B0A1
:1007500091F804B028EA060848EA0E080BFA02FBF2
:1007600048EA0B0891F805E0DDF808B02CEA060C21
:100770000EFA0BFE91F806B04CEA0E0C0BFA02FBD7
:100780004CEA0B0C91F809E0DDF80CB00EFA0BFE08
:10079000DDF804B02BEA050B4EEA0B0ECDF804E0B1
:1007A000DDF800B091F807E02BEA030B0EFA02FE29
:1007B0004BEA0E0BCDF800B05B00AD007600521C8A
:1007C0006408002C9ED12449884202D14FF01F01B9
:1007D00001E04FF0000129EA0109C0F8049002D1BC
:1007E0004FF01F0101E04FF0000127EA0107876089
:1007F00002D14FF01F0101E04FF000012AEA010A87
:10080000C0F80CA002D14FF01F0101E04FF0000131
:1008100028EA0108C0F8108002D14FF01F0101E062
:100820004FF000012CEA010CC0F814C002D14FF0C7
:100830001F0101E04FF00001019A22EA01028261EA
:1008400002D14FF01F0101E04FF00001009A22EAAF
:100850000102C261BDE8FF8F00000B400068084242
:1008600001D0012070470020704700000368054A4E
:10087000904201D11F2200E000220A43934303600B
:100880007047000000000B400368054A904201D108
:100890001F2200E0002293430B43036070470000D7
:1008A00000000B4070470000F0B585B00C46816831
:1008B0001B4B026899420CD32260416861608068DA
:1008C000A0604FF4004105B01648BDE8F040FFF7C6
:1008D000CDBFC82901D34B0200D5C821550480885B
:1008E0008604CA03104804F10801231D077A3F0655
:1008F000CDE90174CDE90331017909060091007851
:1009000031460306284600F013F82068400C2060AA
:10091000606880146060A068800BA06005B0F0BDC6
:10092000A086010000000B407C00002001F052B9BD
:100930002DE9FF4FA3B00C46349D9846DFF8FCA389
:10094000CDF84CA00227FE48CDE90007012313AAE9
:10095000194623A803F082F80323FA4A0221F84833
:1009600002F04AFE0326F74B0E220C333146F548BF
:10097000009603F0D9F8F34B122218330321A3F1A8
:100980000C00FFF761FEEF4B0E2224330321A3F18D
:100990000C00009603F02BF9EA4B202230330321A0
:1009A000A3F10C00009603F022F9E6483030FFF77F
:1009B000B8FD81461294E24801230838CDE90007CA
:1009C00013AA194612A802F025FDDE4ADC480323CB
:1009D000243A0221083802F032FBDA4B0E22183B8F
:1009E0000321A3F10C00009603F09EF8D54B1222D0
:1009F0000C3B0321A3F10C00FFF7E5FDD14B0E22C8
:100A00003C3B032103F13000009602F086FCCD4B05
:100A10002022303B0321A3F10C00009602F07DFC64
:100A2000C8483038FFF77BFD04460222C6492046FD
:100A300002F0F6FAC44B1D2208330221C248009787
:100A400003F072F80222C049504602F0CBFDBE48C6
:100A5000BD4A2030A0F10801CDE90607CDE9041711
:100A6000B84808393C38CDE90217CDE90006022321
:100A7000194602F1080002F02EFBB14AB1480223E8
:100A8000083A03213C3802F0DAFAAF4B1E22283331
:100A9000022103F1D000FFF796FDA94B1E22083B6F
:100AA0000221A3F1D000009702F037FCA4480838D7
:100AB000FFF735FD46B2A44902222031204602F05C
:100AC000AFFAA14B1E221833022103F10800FFF7F1
:100AD0007AFD300703D566F00700129002E006F0B9
:100AE00007001290984801233030CDE9000713AA7F
:100AF000194612A802F08EFC934B012238330221D2
:100B0000A3F10800009703F00FF88F4B1E2220334B
:100B1000022103F11800FFF756FD8B4A0223103221
:100B200002F11001A1F10800FFF772FD864B1E22B1
:100B3000022103F11000FFF746FD834B1122083319
:100B400002218148009702F0E8FB7F480830FFF758
:100B5000E8FC81B20D227D4802F0B9F9060C300A9A
:100B60000B90DFF8D8B17A49B9FBFBF0484309EBA9
:100B70004000010C0D22754802F0A9F9000C1190FB
:100B800011984FEA102A704902221831204602F0CB
:100B900047FA6D4B1D221033022103F10800009724
:100BA00002F0C2FF684902221831584602F01AFDCD
:100BB000654802233030CDE9060700F10801CDE990
:100BC0000417A0F110025F4903203C39CDE9022748
:100BD000CDE90010083A1946A2F1080002F07BFAAC
:100BE00058480223584A03213C3802F028FA564B51
:100BF0001E22403302215448FFF7E5FC524B1E22CF
:100C0000022103F14000009702F087FB4E48FFF7F6
:100C100086FC4FFA80FB4C4902223031204602F01C
:100C2000FFF9494B1E2238330221A3F10800FFF7D8
:100C3000CAFC5FEA0B7003D56BF00700129002E06C
:100C40000BF007001290404801234830CDE900071F
:100C500013AA194612A802F0DDFB3B4B01225033C8
:100C60000221A3F10800009702F05EFF364B1E221E
:100C70003033022103F12000FFF7A5FC324A0223A2
:100C8000203202F1100101F10800FFF7C1FC2E4BE8
:100C90001E221833022103F10800FFF794FC2A4BAF
:100CA00011221033022103F10800009702F035FBF6
:100CB00025481030FFF735FC81B20D22234802F0A1
:100CC00006F9000C10901098000A0D90DFF86CB037
:100CD0001F49B9FBFBF0484309EB4000010C0D2212
:100CE0001A4802F0F4F8000C0F900F984FEA102900
:100CF000154902223831204602F092F9124B1D228A
:100D00002033022103F11800009702F00DFF0E4975
:100D100002223831584602F065FC0B48483000F199
:100D20000801CDE90607CDE90417A0F1180205492D
:100D3000CDE9022703203C3902230BE0A2DA0FC9D8
:100D400098010020AC410020980000204959BE289D
:100D5000AF12781BCDE9001008321946A2F1180035
:100D600002F0B9F90223FE4A0321FE4802F067F9B6
:100D7000FB4B1E2240330221F948FFF724FCF84BBD
:100D80001E22022103F14000009702F0C6FAF44847
:100D9000FFF7C5FB4FFA80FBF149022230312046B4
:100DA00002F03EF9EE4B1E2238330221A3F1080077
:100DB000FFF709FC5FEA0B7003D56BF00700129098
:100DC00002E00BF007001290E54802274830CDE919
:100DD0000007012313AA194612A802F01BFBE04BDF
:100DE000012250330221A3F10800009702F09CFE7B
:100DF000DB4B1E223033022103F12000FFF7E3FB1F
:100E0000D74A0223183202F1180101F10800FFF756
:100E1000FFFBD34B1E2220330221A3F10800FFF772
:100E2000D2FBCF4B11220833022103F118000097A7
:100E300002F073FACA480830FFF773FB81B20D2243
:100E4000C94802F044F8000C0E900E98000A0C906D
:100E5000DFF810B30B980BF1780B3BF91000C003CF
:100E600014900B98F1B2401CC0B23BF910201498BA
:100E7000C0EBC230082202F01BF80F2101F02CFB5E
:100E800001B2149800EBC1300F2101F025FB00B234
:100E90001290B34801235830CDE9000725AA19461E
:100EA00012A802F0B7FAAE4B102260330221A3F170
:100EB0000800009702F038FE3BF91A00C0031490B6
:100EC00011980AF1010AC1B20AF0FF003BF91020A3
:100ED0001498C0EBC230082201F0EAFF0F2101F0A4
:100EE000FBFA01B2149800EBC1300F2101F0F4FAC3
:100EF00000B212900320ABF14801CDE900109848F0
:100F0000012312AA0221603002F058F90320954B08
:100F100001460090102203F1300002F0FEF9904AE1
:100F20000223483203218F4802F089F88C4B1F229C
:100F300050330221A3F10800009702F0EEF988482F
:100F40005030FFF7ECFA86490222303102F068F89F
:100F5000834B1F2238330221A3F10800009702F0CF
:100F6000E3FD7F4902224831404602F059F87C4BAC
:100F700015223033022103F11800009702F0D4FD4E
:100F8000774A0223183202F1180101F10800FFF735
:100F9000CAFA734B1F2220330221A3F108000097E5
:100FA00002F0BBF96E482030FFF7B9FA16900D98A1
:100FB0003BF910004FEAC03A10980822C1B20D98D0
:100FC000401CC0B23BF91000CAEBC03001F070FF0A
:100FD0000F2101F081FA00B20AEBC0300F2101F0BD
:100FE0007BFA00B212905E4801236830CDE9000719
:100FF00025AA194612A802F00DFA594B1022703397
:101000000221A3F10800009702F08EFD0BF5007B92
:101010003BF919004FEAC03A0F9809F10109C1B232
:1010200009F0FF0008223BF91000CAEBC03001F0C4
:101030003FFF0F2101F050FA00B20AEBC0300F2140
:1010400001F04AFA00B212900320ABF51271CDE91B
:1010500000104348012312AA0221703002F0AEF8BA
:101060000320404B01460090102203F1300002F0B3
:1010700054F93B4A0223583203213A4801F0DFFF7A
:10108000374B1F2260330221A3F10800009702F0C2
:1010900044F933486030FFF742FA314902224831BF
:1010A00001F0BEFF2E4B1F223033022103F1180046
:1010B000009702F039FD2A4902225831309801F098
:1010C000AFFF274B15224833022103F11000009790
:1010D00002F02AFD224A0223383202F11001A1F166
:1010E0001800FFF720FA1E4B1F221833022103F1CC
:1010F0002000009702F011F919481830FFF70FFA95
:1011000015900C983BF910004FEAC0390E98082250
:10111000C1B20C98401CC0B23BF91000C9EBC03002
:1011200001F0C6FE0F2101F0D7F900B209EBC03083
:101130000F2101F0D1F900B21290DFF824A00123B1
:101140000AF1780ACDE900A725AA194612A802F0EB
:1011500061F91022AAF1100302215046009705E020
:10116000B0000020704100204959BE2802F0DCFC8C
:10117000AAF1080320220221A3F10800009702F03F
:10118000CCF8AAF10800FFF7CAF90222AAF120015F
:1011900001F046FFAAF130031F22022103F11000E3
:1011A000009702F0C1FC0222AAF11001319801F06F
:1011B00037FFAAF120031522022103F11000009746
:1011C00002F0B2FCAAF1480202F128010223A1F1C7
:1011D0001000FFF7A8F9AAF140031F220221A3F192
:1011E0000800009702F099F8AAF14000FFF797F97C
:1011F00081461698129016981390AAF11000CDE926
:101200000007012313AA194612A801F0D7FFAAF17B
:1012100020030122022103F11000009702F07DF863
:101220001598129015981390CDE900A7012313AAE1
:10123000194612A801F0C2FFAAF1100301220221EF
:101240005046009702F069F8AAF1300202F120013D
:101250000223A1F11000FFF766F9AAF14803012269
:10126000022103F11800009702F057F8CDF84890DA
:10127000CDF84C90AAF12000CDE90007012313AA74
:10128000194612A801F09AFFAAF130030222114672
:1012900003F11000009702F040F8AAF1980202F161
:1012A00068010223A1F11800FFF73DF94FF0000A91
:1012B0000222F749F74801F073FFF0B91E244FF0FE
:1012C000010B0BFA04F747EA0A0712971397F14943
:1012D00002206831CDE90010012313AA194612A893
:1012E00001F06CFFEB49022201F1680001F058FFA8
:1012F00000B1BA46641E002CE3DA4FEA4A012960C5
:101300001698129016981390DFF888A34FF0020BEE
:101310000AF1880A012313AA194612A8CDE900ABE5
:1013200001F04CFFAAF11003012202215046CDF832
:1013300000B001F0F2FF15981290159813900AF181
:101340001000CDE9000B012313AA194612A801F0E1
:1013500035FF53460122022103F11000CDF800B001
:1013600001F0DBFF51460223AAF19002A1F1100027
:10137000FFF7D9F800270222C549AAF1900001F031
:101380000FFFB0BB1E244FF0010A0AFA04FA4AEA22
:10139000070ACDF848A0CDF84CA0BE4801238830FC
:1013A000CDE9000B13AA194612A801F007FFB948AE
:1013B0000323B94A0221883001F041FE0320B64BD5
:1013C00001460090303B0122B34802F0ADFBB1482A
:1013D0000323B14A0221083801F031FEAE4903224D
:1013E000A1F1300001F0DCFE00B15746641E002C74
:1013F000C9DA00200A9009904FF6FF7AB9F1000F80
:1014000074DDA4494FF0020201F1A001384601F059
:1014100007FEA04B0122A8330221A3F10800CDF85A
:1014200000B002F081FB9B4B1F22B0330221A3F1DD
:101430000800FFF7C8F897490222A031484601F09A
:10144000EFFD944B1F22A8330221A3F10800FFF700
:10145000BAF890490222A83101F1080001F08FFE8C
:1014600010B141F62215FFE1002F51DB894902221C
:10147000B831484601F0D4FD864B1F22C03302210B
:10148000A3F10800FFF79FF882490222D0313846C5
:1014900001F0C6FD7F4B0122E0330221A3F11000D1
:1014A000CDF800B002F040FB7A4B1F22B833022186
:1014B00003F12800FFF787F876490222B83101F1DD
:1014C000080001F06DFE90B147B10F223946484641
:1014D00001F0E8F9002803DA002005E0564614E0A0
:1014E000B0F5803F00DB504686B20EE097E0112257
:1014F0004946384601F0D6F9002801DA002003E019
:10150000B0F5803F00DB504686B201200990ABE188
:10151000B7F1004F02DC6FF0004801E0C7F10008AE
:101520005C490222D831484601F07AFD594B1F220E
:10153000A033022103F13800FFF745F85549022294
:10154000E831404601F06CFD524B0122F03302219C
:10155000A3F10800CDF800B002F0E6FA4D4B1F22CF
:10156000D833022103F11800FFF72DF84949022270
:10157000D831A1F1380001F002FE10B144F6663511
:1015800072E144490222E831484601F049FD414BED
:101590001F22F0330221A3F10800FFF714F83D49A0
:1015A0000222B831404601F03BFD3A4B0122C033E4
:1015B0000221A3F10800CDF800B002F0B5FA354BD6
:1015C0001F22E8330221A3F12800FEF7FCFF314976
:1015D0000222E83101F1080001F0EBFD70B10F22A9
:1015E0004146484601F05EF9002801DA002003E098
:1015F000B0F5803F00DB504686B20DE0112249462F
:10160000404601F04FF9002801DA002003E0B0F570
:10161000803F00DB504686B20120099024E17DDA4C
:101620001C490222A031384601F0FAFC194B012274
:101630009833022103F10800CDF800B002F074FAEB
:10164000144B1F228833022103F11000FEF7BBFF69
:1016500010490222A031484601F0E2FC0D4B1F2246
:101660009833022103F10800FEF7ADFF0949022279
:101670009831A1F1100001F082FD08B1074DF3E0AF
:10168000002F75DBB9F1004F0ADC6FF0004409E070
:10169000FC60000890000020A04100209AB4FFFFE9
:1016A000C9F100040222F749204601F0B9FCF54BCC
:1016B0001F2208330221F348FEF785FFF149022279
:1016C0001039384601F0ACFCEE4B0122303B0221D0
:1016D00003F12000CDF800B002F026FAE94B1F22FA
:1016E0000221A3F13000FEF76EFFE649022201F16C
:1016F000080001F044FD08B1E34DB5E0E1490222E4
:101700001039204601F08CFCDE4B1F22303B0221B9
:1017100003F12000FEF757FF022200E09EE0D949C6
:101720003846283901F07CFCD64B0122183B0221B7
:10173000A3F11000CDF800B002F0F6F9D14B1F2252
:10174000103B0221A3F10800FEF73DFFCD49022224
:101750001039A1F1200001F02CFD90B14FB10F2202
:101760003946204601F09EF8002804DA002006E001
:1017700018E0564613E0B0F5803F00DB504686B2D5
:101780000DE011222146384601F08CF8002801DADC
:10179000002003E0B0F5803F00DB504686B2012018
:1017A0000A9061E04FF00040874202DC6FF0004891
:1017B00001E0C7F10008814502DC6FF0004401E060
:1017C000C9F10004AF4902221039204601F028FC7B
:1017D000AC4B1F22483B022103F13800FEF7F3FE19
:1017E0000222A849404601F01BFCA64B0122083307
:1017F0000221A448CDF800B002F096F9A14B1F22B7
:10180000103B022103F11800FEF7DDFE9D49022284
:101810001039A1F1380001F0C3FC70B10F2241462C
:10182000204601F03FF8002801DA002003E0B0F57F
:10183000803F00DB504686B20DE011222146404633
:1018400001F030F8002801DA002003E0B0F5803F15
:1018500000DB504686B201200A9005E0002F01DB34
:10186000002501E046F28845DFF820A20998E8B398
:10187000350A681C3AF815103AF81000082280035F
:10188000A0EB8131F0B201F022FB800B3AF8151089
:10189000800300EB8130C0F38F30C5087949022204
:1018A0002039384601F0BCFB764B0122183B02215F
:1018B000A3F10800CDF800B002F036F9714B1F22F9
:1018C000083B0221A3F11000FEF77DFE6D490222C4
:1018D0002039484601F0A4FB6A4B1F22183B022125
:1018E000A3F10800FEF76FFE022200E03CE01DA914
:1018F000484601F095FB634B1F22203B02211DA8A7
:10190000FEF761FE02221BA9404601F089FB19ABDC
:10191000012202211BA8CDF800B002F005F91DAB91
:101920001F22022119A8FEF74EFE002F0CDB55499D
:101930000222183901F1100001F03BFCA0B143F282
:101940004320401B05B20FE04E4802221DA920385B
:1019500001F01DFC20B143F24320284405B203E00E
:1019600046F28740401B05B20A98E8B3350A681C66
:101970003AF815103AF8100008228003A0EB8131E4
:10198000F0B201F0A4FA800B3AF81510800300EBD6
:101990008130C0F38F30C5083A49022228392046E9
:1019A00001F03EFB374B1F22183B0221A3F1100030
:1019B000FEF709FE334902220839384601F030FBB0
:1019C000304B0122203B022103F11800CDF800B07A
:1019D00002F0AAF82B4B1F22283B022103F108003A
:1019E000FEF7F1FD022200E059E0264920460839C1
:1019F00001F016FB234B1F22203B022103F11800AC
:101A0000FEF7E1FD1F4902224039404601F008FB84
:101A10001C4B0122383B0221A3F10800CDF800B095
:101A200002F082F8174B1F22083B0221A3F130007D
:101A3000FEF7C9FD164C002F10DB1249022228398F
:101A400001F1100001F0ACFB10B1684205B226E0D4
:101A5000A5F54855433D25432DB220E00949022212
:101A60000839A1F1180001F092FB98B143F243202C
:101A700028444042C10302D5204305B20FE005B21D
:101A80000DE0000078010020DEE6FFFFE8450020C1
:101A90000000FFFFA5F5C845873D25432DB2DDE9D0
:101AA000150100F02DFDC003002822DA022245496D
:101AB00001F0B6FA1FAB1E2202214248CDF800B059
:101AC00002F032F840493F48CA68896806C03E497A
:101AD00002231BAA08311FA8FEF725FD19AB1E2201
:101AE00002211BA8CDF800B001F017FC19A8FEF7E1
:101AF00016FD022221A901F093FA324B1F22022186
:101B000021A8CDF800B002F00FF83048129003245D
:101B10002F4ECDE90064012312AA0221294801F0C9
:101B200079FC06F10C031F2203213046009401F0DA
:101B3000F4FB02231FAA032106F10C0001F07FFA37
:101B40001BAB1D2202211FA8CDF800B001F0E5FB60
:101B50001BA8FEF7E6FC329908606804022217A968
:101B600001F05EFA21AB1F22022117A8CDF800B0C8
:101B700001F0DAFFCDE90064012312AA022121A8B5
:101B800001F048FC06F10C031F22032130460094AB
:101B900001F0C3FB02230B4A032106F10C0001F004
:101BA0004EFA1FAB1E2202210648CDF800B001F00C
:101BB000B4FB1FA8FEF7B3FC3399086027B0BDE85B
:101BC000F08F000088010020FC600008B7C17C5144
:101BD0008841002010B500F023FE01F011FCBDE8A3
:101BE000104000F083BC7047014908607047000056
:101BF000880040420B4AD36823F003030343D360B9
:101C0000506820F4706040EA012050600648D0F827
:101C10008810002904D0012140F88C1F00210160A8
:101C200070470000000002400000404208B500205C
:101C300000904FF4C063212000F0F2F80099491C95
:101C400000910099994201D20028F4D0212000F09F
:101C5000E7F808B1012008BD002008BD014908606F
:101C60007047000088014042034AD16821F0F0012A
:101C700041EA0010D060704700000240034AD1687A
:101C800021F440710143D160704700000000024020
:101C900000B500F037F90121C80600F025F9054824
:101CA000C16B41F48101C163C16B01F48101C16366
:101CB00000BD000000800D402DE9F04FDFF854C159
:101CC000DCF80C108A07544901D50B4600E00B469E
:101CD000DCF80C20514DD20700D02B461A46DCF818
:101CE0000C40640705D5DCF80440C4F30324641CED
:101CF0006243DCF80C404FF40048C4F3012449F679
:101D0000404901275CB1012C0BD0022C1BD0C0F83C
:101D10000090DCF81040A40718D50C4617E00160CD
:101D2000F7E7DCF80C402409240701D4144608E046
:101D3000DCF80C40C4F30214641C07FA04F4B2FB90
:101D4000F4F40460E5E7C0F80080E2E70C46DCF854
:101D50001060F60700D02C462546DCF810607607A8
:101D600005D5DCF80460C6F30316761C75432E46D1
:101D7000DCF810A05FEACA6A00D576084660DCF895
:101D8000186036095FEA067A01D40E4607E006F0CD
:101D9000070A0AF1010A07FA0AF6B1FBF6F6C6606D
:101DA000DCF818A05FEA0A7B07D50AF0070A0AF1F7
:101DB000010A07FA0AFAB1FBFAF10161DCF8141022
:101DC00011F003011CD001291CD002291CD0294686
:101DD000DCF81420C2F30112C2B1012A18D0022A81
:101DE00000D03146DCF81420120A130705D502F0A2
:101DF0000702521C9740B1FBF7F18160BDE8F08FFC
:101E00001946E5E72146E3E71146E1E74146E9E700
:101E10004946E7E70000024000127A0000093D0051
:101E2000C0F34211012909D00749C96B00F01F0214
:101E300001209040084204D00120704703490968FE
:101E4000F4E700207047000000800D4000000240D1
:101E500009498A6822F003028A60012806D0022814
:101E600003D1886840F0030088607047886840F0BC
:101E700001008860704700000000024008B50020A3
:101E800000904FF4C0632220FFF7CAFF0099491C5D
:101E900000910099994201D20028F4D02220FFF746
:101EA000BFFF08B1012008BD002008BD014908603E
:101EB00070470000D807B04308B5002000904FF4E9
:101EC000C0631720FFF7ACFF0099491C00910099EF
:101ED000994201D20028F4D01720FFF7A1FF08B1E2
:101EE000012008BD002008BD054A002903D0D169A2
:101EF0000143D1617047D1698143D16170470000CE
:101F00000000024000B50120FFF7D0FFFFF7D4FF2B
:101F10000020FFF7B3FE0848C1680021C160426895
:101F20004160826881600269016142694161826940
:101F300081610249C16100BD00000240100000083B
:101F400070477047704700002DE9F041254E264F3D
:101F50000024307A0125012810D1B079401CC1B28B
:101F6000B17102290AD13472B471F57138463C60FE
:101F7000012100F0B5F80E20FEF78DFBF079012865
:101F800009D1307938B9B079401CC1B2B171022998
:101F900001D17571B471707A012811D1B079401CEA
:101FA000C1B2B17102290BD17472B4710220F07107
:101FB00038463C60012100F093F80E20FEF76BFBE1
:101FC000F079022809D1307938B9B079401CC0B213
:101FD000B071022801D17571B4713471B570BDE86A
:101FE000F0810000000000200000074010B5174BF2
:101FF000D868174C800701D5204600E02046D968F4
:10200000C90700D01348D968490704D55968C1F3F6
:102010000321491C4843D9680F4AC1F3012139B152
:10202000012907D002290DD049F64040106010BDAB
:10203000146010BDD968C1F30311491CB0FBF1F065
:10204000106010BD4FF40040106010BD0000024051
:1020500000127A0000093D00A0010020084807494D
:10206000C161C1680021C1604268416082688160CD
:102070000269016142694161FFF7B8BF10000008C1
:102080000000024010B5104B5A6A104CA04205D116
:1020900022F0FF00084340F0807212E00C4CA04296
:1020A00006D122F47F4040EA012040F0007208E0AF
:1020B000084CA04205D122F47F0040EA014040F0E4
:1020C00080625A6210BD000000000240000007401C
:1020D0000080074000000840426D8A434265704717
:1020E000C268002902D042F0010101E022F00101A2
:1020F000C16070470021C160016041608160016280
:1021000041628162C162016341638163C1630166AF
:1021100041668166C166016141618161C16101679A
:1021200041678167C167016441648164C16401657D
:1021300041658165C1657047406D084201D100204D
:1021400070470120704700002DE9F041424F802187
:102150003846FFF7F1FF414C4FF0010801286BD1E1
:1021600080213846FFF7B8FF84F80480386881B2D0
:10217000E18400253D603A48226C40F8221048086E
:102180006063A0F66110374EB0F5C77F17D8E585BC
:102190002078012808D12570A08B2082E08BA082B6
:1021A000208C6082608CE082A08C48BB3046356019
:1021B000218D816045650121FFF792FF35E0E08DBB
:1021C000401C80B2E08507281BD9E5850E20FEF76C
:1021D00057FA00213846FFF783FF3D6000F0FCFE10
:1021E00000F090FCE5710E20FEF74AFA002130461F
:1021F000FFF776FF35600420616B01F0DFF8E563DF
:1022000013E02078012808D12570A08B2082E08B74
:10221000A082208C6082608CE082A08C28B930463D
:10222000356045650121FFF75BFFE06BA0F57F415D
:10223000FF390AD0401CE063206CA0F5E061FF3953
:1022400006D0401C2064BDE8F081C4F83C80F3E770
:10225000C4F84080F7E700000000074000000020BD
:10226000380500200000084070B50C4C608D401C03
:102270006085A08C002807D1B4F91200FEF70CF994
:10228000B4F91600FEF726F9054C00256565002116
:102290002046FFF725FF256070BD000000000020EC
:1022A0000080074010B50D4C00212046FFF718FFB5
:1022B0000021216061650A4CB4F91000FEF7ECF8CA
:1022C000B4F91400FEF706F90648218E8160012159
:1022D000FFF706FFA08D401CA08510BD0000084040
:1022E000000000200080074010B5124C402120461D
:1022F00000F08AF801281BD1204600F0E3F8C0B2B4
:1023000000230D4AEB2800D1136011684C1C1144C6
:10231000146008711168192902D19C2800D013603B
:1023200010681A2804D1044901205C39C870136070
:1023300010BD0000000003405C00002070B5114C8F
:102340004021204600F060F8012819D1204600F015
:10235000B9F8C1B20C4AA2F15003106828B90B4C6D
:10236000DD7A645DB4EB111F0AD1441C1044146083
:1023700001711068062803D10020106001205870F8
:1023800070BD00000080034050000020C43D0008E4
:1023900010B50B4B9A6A0B4CA04205D142F08070ED
:1023A00020F0FF020A4308E0074CA04205D142F0AA
:1023B000007020F47F4040EA01229A6210BD0000C4
:1023C000000002400000034000800340002904D0C8
:1023D000016B41F0010101637047016B4FF6FE7222
:1023E00011400163704700210163C1624160902286
:1023F000826101624162816202224263816381647F
:102400004FF44071016370478069084201D0012098
:10241000704700207047002A03D0826B0A43826312
:102420007047826B8A4382637047000070B586B044
:1024300004460D4601A8FFF73FFC01981E49896A32
:102440001E4B01229C4205D101F007018A40B0FBDE
:10245000F2F007E01A4B9C4204D1C1F302218A40FA
:10246000B0FBF2F02A689108B0FBF1F3990903F090
:102470003F03800003EB8116B0FBF6F0801AC00129
:10248000B0FBF2F0022802D9002006B070BD6162F4
:10249000A362E06AA988EA886B8911432A891A43F2
:1024A00011430143E162206B4FF680718843A98993
:1024B000014321630120E8E70000024000000340DF
:1024C00000800340006880B27047C1F308010160DA
:1024D00070477047FEE77047002801DBC84070472F
:1024E000C043C840401C40427047000040F20222F6
:1024F00001490248FDF762BE0C610008E845002072
:102500002DE9F84F07460D464FF0000B00200090D4
:102510004FF000426842511E4FF6FF7A002F54DD03
:10252000BD4202D141F62214B1E0002D21DBAF42C1
:102530000EDC10222946384600F0B4F9002801DAF2
:10254000002003E0B0F5803F00DB504686B20DE08E
:1025500010223946284600F0A5F9002801DA0020AB
:1025600003E0B0F5803F00DB504686B201200090CA
:102570008DE0954201DC884600E08046474502D167
:1025800044F6663483E00FDA4FF0100241463846D5
:1025900000F088F9002801DA002003E0B0F5803F60
:1025A00000DB504686B20DE010223946404600F06E
:1025B00079F9002801DA002003E0B0F5803F00DB64
:1025C000504686B20120009061E05ADABD4201D146
:1025D000644C5CE0C7F10009002D28DB974200DC69
:1025E0008946A94501D1604C51E00FDA4FF0100245
:1025F0002946484600F056F9002801DA002003E099
:10260000B0F5803F00DB504686B20DE0102249460F
:10261000284600F047F9002801DA002003E0B0F571
:10262000803F00DB504686B24FF0010B2FE0954211
:1026300001DC884600E08046974200DC8946C145BF
:102640000EDC10224146484600F02CF9002801DA41
:10265000002003E0B0F5803F00DB504686B20DE07D
:1026600010224946404600F01DF9002801DA0020FA
:1026700003E0B0F5803F00DB504686B24FF0010B1F
:1026800005E0002D01DB002401E046F28844DFF87C
:10269000DCA0009820B3340A601C3AF814103AF811
:1026A000100008228003A0EB8131F0B200F00FFC93
:1026B000800B3AF81410800300EB8130C0F38F30A8
:1026C000C408002D06DBBD420FDA43F24320001B95
:1026D00004B20AE0474504DD43F24320204404B23B
:1026E00003E046F28740001B04B2BBF1000F35D077
:1026F000340A601C3AF814103AF8100008228003DB
:10270000A0EB8131F0B200F0E2FB800B3AF814103C
:10271000800300EB8130C0F38F30C0081449002DD6
:102720000ADBA94502DC404204B217E0A0F548509C
:102730004338084304B211E0C1450ADD43F24322A5
:1027400010444042C20302D5084304B206E004B27A
:1027500004E0A0F5C8408738084304B22046BDE82D
:10276000F88F00009AB4FFFFDEE6FFFFE845002087
:102770000000FFFF10B500230022491E03E010F8FF
:10278000014B2344521C8A42F9D3D8B210BD000039
:1027900070B50546042D27D20720FDF771FF40F2E2
:1027A0008534642322461A491A4801F0C7FAC0B199
:1027B0002146174800F059F998B10021601E05FB29
:1027C00000F41348144A4FF4617304E0465622F8AB
:1027D0001460491C641C9942F8D32946082000F073
:1027E000EDFD0720FDF757FF0C4C0A2D05D1002009
:1027F000A0632946082000F0E1FD0B2D07D1012040
:10280000A0632946BDE87040082000F0D7BD70BD28
:10281000A401002000800340382500200000002093
:102820004FF4007201490248FDF7C8BC0E6300086E
:10283000E841002010B5FDF753FE0020FDF722FE11
:102840000120FDF711FE0020FDF73AFEBDE8104023
:102850000120FDF727BEF0B503460025B3FBF1F0DC
:10286000B3FBF1F401FB143300244FF0004712E0F6
:10287000BB4201D3012600E000265B000DB9B8423F
:1028800001D3012500E0002540000EB98B4201D3A1
:10289000401C5B1A641C9442EAD3002D01D04FF017
:1028A000FF30F0BD2DE9F04104460D466FF00047C2
:1028B000FE07002D04D0002C09DAE043401C07E09D
:1028C000002C02DB3846BDE8F0813046FBE72046AD
:1028D000002D02DAE943491C00E02946FFF7BBFF5F
:1028E000E10FB1EBD57F05D0B04201D24042EAE71B
:1028F0003046E8E7B042E6D33846E4E72DE9FE4F3C
:102900000025009501950295464E3046FDF7D9FE0B
:10291000DFF814814046FDF7D4FEDFF810914846F9
:10292000FDF7CFFE424F3846FDF7CBFE4FF4004097
:10293000ADF800008DF8025001248DF80A408DF8A2
:102940000440DFF8F0A069465046FDF7C5FE40F2AE
:102950000120ADF800008DF802408DF80A5069465C
:102960003046FDF7B9FE2003ADF800008DF80250A7
:102970008DF808408DF80A4002268DF809608DF820
:10298000044069465046FDF7A7FE4FF47840ADF885
:1029900000008DF808508DF802408DF809408DF840
:1029A0000A4069464846FDF797FE7020ADF80000E2
:1029B0008DF808508DF802408DF809408DF80A40D6
:1029C00069463846FDF788FE8DF8086003278DF8C4
:1029D00009708DF80A408DF802402020ADF8000003
:1029E00069464846FDF778FE8DF802504020ADF864
:1029F000000069464846FDF76FFE8DF808708DF8B7
:102A00000240ADF8006069464046FDF765FE8DF86E
:102A10000250ADF8004069464046FDF75DFEBDE856
:102A2000FE8F000000800C4000800E4000000B4034
:102A300000800B4000000C4010B500220023491E0E
:102A400003E010F8014B22445B1C8B42F9D302E0F7
:102A5000D1B201EB1222FF2AFAD80078D1B281421A
:102A600001D1012010BD002010BD30B504460D4637
:102A700029462046FFF77EFE6119C0B211F8011CFD
:102A8000884201D1012030BD002030BD07B5184873
:102A9000416C4A1C42641748032907D2DDE901133F
:102AA000009AC0E90313826001200EBD114A009B09
:102AB0000832118849005B4201EB430109B201F57C
:102AC0000071B1F5806F01D900200EBD9188019A87
:102AD000891A09B201F58071B1F5007F01D9002092
:102AE0000EBD9DE80E0008300EC001200EBD000096
:102AF000000000202405002001460148FDF7C4BE67
:102B000000000B4010B54FF470410448FDF7AEFED5
:102B1000BDE810404FF48050FFF7EEBF00000B40BF
:102B20004FF0E0244FF0FF30C4F88002C4F8800179
:102B300000F02AFAFFF7E2FE00F04EFA4FF4805060
:102B4000FFF7DAFF4FF40041D248FDF787FE08B1E6
:102B5000012000E00020D04DE87200F0F1FC00F010
:102B60000DFD00F025FDDFF83493D9F80800288525
:102B700001F082F801F0AEF8FFF75CFE00214FF49F
:102B8000E670FDF7FDFB4FF40061C548FDF77CFEE4
:102B90006FF07F40606107202061FDF7C7FEDFF81E
:102BA00004B3DFF804A3012705F14808002668797B
:102BB00001281CD16E712E71AE7100F00DFAFFF775
:102BC000A1FFEE632E64EE710E20FDF759FD00218A
:102BD0004846FFF785FAC9F8006000215046FFF724
:102BE0007FFACAF800600121042000F0E7FBE878D2
:102BF00000285BD0EE70A84C1A215C34201DFFF732
:102C00001BFF0028D3D0241D607B8008217B00EBB4
:102C10004110E17A01F0070100EB0132207DE17CF7
:102C2000800800EB4111A07C01EB003109B24006A5
:102C300001D5484201B2607C237C00EBC310E37BEA
:102C4000A47B9B0303EB4453C418B8F80000954BD6
:102C500000EB42000C3BC0F34E001860B8F80220B5
:102C600002EB410141F34E015960B8F904202244BE
:102C70009A60FFF70BFF002899D08A49A1F10C0058
:102C8000FDF712FEE87A70B1DBF804004FF46161E1
:102C90004843C013E989084400B26883B5F90C10B1
:102CA000FDF76EFB83E7DBF80000EFE768780128AB
:102CB00024D16E70784C543406212046FFF7D5FE9F
:102CC00000281BD0207800F00F00D4F8011009BABA
:102CD000012814D0022869D003287ED0062874D099
:102CE000072873D0092872D00A2871D00B2870D019
:102CF00008286FD00F286ED08B286DD0B3E02079D4
:102D000020B101281CD0022819D133E000F064F969
:102D1000FFF7F8FEEE632E64EE710E20FDF7B0FCB7
:102D200000215046FFF7DCF9CAF800600021484650
:102D3000FFF7D6F9C9F800600620FDF7A1FC92E084
:102D40006E712E71AE7100F059F94FF47041544814
:102D5000FDF78CFD4FF40050FFF7CEFEE87938B157
:102D6000EF71EE63EE852E640620FDF789FC7AE0B4
:102D70002F72F6E76E712E71AE7100F03FF94FF4CD
:102D800070414748FDF772FD4FF48040FFF7B4FEF5
:102D9000E87948B10220E871EE63EE852E646E6436
:102DA0000620FDF778FC5EE06F72F5E72079E178A8
:102DB00000EB012000B22883E979022953D0B5F94C
:102DC0000C10FDF7DDFA4EE007E00DE01AE01FE021
:102DD0002BE031E038E03BE040E0E178207907EBA0
:102DE0000121084428853EE0A078617800EB0120AD
:102DF00001B2A981E879022835D0B5F91800FDF7AC
:102E0000BFFA30E0A078617800EB0120E8812AE089
:102E1000A078617800EB0120A8F800002079E17823
:102E200000EB0120A8F802001DE02079E17800EB1A
:102E30000120A8F8040016E01C48A1780160E178A0
:102E40004160217981600EE00846FFF7A1FC0AE0AD
:102E500040F202210F2000F0B1FA04E0A07861787E
:102E600000EB01202886A87801287FF41BAFAE7004
:102E7000A87A401CC0B2A872012805D0AE72E979C8
:102E8000012000F09BFA92E6298D032000F096FACB
:102E90008DE6000000000C4000000020000008400B
:102EA00000000B4064410020000007407C0000202F
:102EB0001CB514466B4601AA00F017F80198C4F13E
:102EC000200188400099E140084300901CBD1CB5DA
:102ED000144601AB6A4600F038F80098C4F12001AE
:102EE00088400199E14008431CBD2DE9F0430028CA
:102EF00002DAC443641C00E004464FEA1448A4B25A
:102F00004FEA11498DB208FB05FC04FB09F76C433D
:102F1000002504EB0746A64200D2012506EB0C442F
:102F2000B44200D26D1C3E0C08FB095506EB1C4652
:102F3000354431B1002804DAED43E443641C04B99C
:102F40006D1C15601C60BDE8F083F0B5070C85B200
:102F50004FEA114C88B207FB00F605FB0CF4454321
:102F6000002005EB0441A94200D2012001EB0645F7
:102F70008D4200D2401C210C07FB0C0001EB1641D6
:102F8000084410601D60F0BD10B5FEF781FE012001
:102F9000FEF75EFFFEF772FF0128FBD10921022038
:102FA000FEF728FE0120FEF71FFEFEF73FFE012878
:102FB000FBD10020FEF758FE0120FEF74FFE4FF434
:102FC0008070FEF75BFEBDE8104001210148FEF76E
:102FD0008BBF0000D0C0C52310B5074C1021204680
:102FE000FDF744FC20212046FDF740FC2046BDE8CB
:102FF00010404021FDF73ABC00800B4010B5074C53
:1030000010212046FDF740FC20212046FDF73CFC26
:103010002046BDE810404021FDF736BC00800B4043
:103020000860002802DA4FF0FF3300E0002301209F
:1030300002E041F82030401C9042FADB70472DE955
:10304000F04180460E4617461D46AE4201DA344630
:1030500000E02C46012C04D4A20041463846FDF77E
:10306000F2F8B5420EDD761E58F82600002802DA86
:103070004FF0FF3004E0002002E047F82400641C19
:10308000AC42FADBBDE8F08170B50546531E55F839
:10309000230000F0004051F823304FF0FF3603F0DA
:1030A0000043834204D008B1304670BD012070BD9A
:1030B00000200BE0521E55F8224051F822309C426D
:1030C00004D002D94FF0010000E030460028EED1D4
:1030D000002AEFDC70BD2DE9FF5F1746DDE910AB7C
:1030E000DDE90E891E464A1E50F82220D40F721EBA
:1030F00057F82220D50F002C04D00A461299FDF76C
:103100002FFA03E0DDE91223FFF799FF2DB13246D4
:1031100038461499FDF724FA05E0DDE91423314619
:103120003846FFF78CFF8DE8000F12A80FC800F09B
:1031300084FA00280EDA34B104B049464046BDE8AE
:10314000F05FFDF730BA04B049464046BDE8F05F95
:10315000FDF719BAAC4210D059465046FDF7D0F9E8
:1031600018B14946404600F067FC04B04A46414663
:103170004046BDE8F05FFDF7F3B9BDE8FF9F10B52D
:10318000FFF782FF08B1002010BD012010BD10B56F
:10319000FFF77AFF002801DD012010BD002010BDDF
:1031A00010B5FFF771FF002801DC012010BD0020E1
:1031B00010BD10B5FFF768FFC00F10BD2DE9FF4F20
:1031C00085B0DDE91257DDE90510401E51F82000F9
:1031D000C00F0190DDE90710401E51F82000C00F1C
:1031E000009001200390012F03D4B9002846FDF779
:1031F0005CF8002376E00024059850F8230001993C
:1032000049B1C143039808440399884201D201217E
:1032100000E0002103914FEA104E80B2049001209B
:10322000A7EB030C0899614501DCDDF820C01946C5
:10323000002250E0079E56F82260DDF80080B8F1C9
:10324000000F06D0F6430644864201D2012000E07A
:1032500000204FEA164A1FFA86F90EFB09F6DDF840
:10326000108008FB0AF855F821B0A344A34501D209
:10327000012400E000240294049C09FB04F90BEBF8
:1032800009044C4502D24FF0010901E04FF000095A
:10329000DDF808B0CB444FEA06494C444C4502D215
:1032A0004FF0010901E04FF00009CB444FEA084913
:1032B0004C444C4502D24FF0010901E04FF00009A7
:1032C000D94445F8214009EB164404EB18440EFBA1
:1032D0000A44491C521C6245ACDBB94201DA45F88C
:1032E00021405B1C0698834285DBDDE900108842A3
:1032F00010D0012100200BE055F82020D2430A44D1
:1033000045F820208A4201D2012100E00021401C22
:10331000B842F1DB09B0BDE8F08F2DE9F04FDDF8E0
:103320002490D41702EBD464661100244D1E50F88B
:103330002550002D02DA4FF0FF3C01E04FF0000C69
:103340008E4236DA09EB06058D4200DD0D467742E6
:1033500002EB47173FB350F82620761CC7F1200830
:103360000BE022FA07FA50F8262002FA08FB4BEA93
:103370000A0B43F824B0641C761CAE42F1DB8D428C
:1033800002DA50F8250000E06046FA4000FA08F042
:10339000024343F82420641C0BE050F8261043F845
:1033A0002410641C761CAE42F7DB02E043F824C014
:1033B000641C4C45FADBBDE8F08F00001CB5002210
:1033C000009201920C4B0B4ADB7AD25C40EA02106D
:1033D0008DF8000008BACDF8010006216846FFF715
:1033E000C9F98DF8050006226946044800F0D4FCAE
:1033F0001CBD0000C43D0008000000200080034008
:103400004FF4007201490248FCF7D8BE0E6500086F
:10341000E84300202DE9FF4F83B0DDE91057DDE9D7
:103420000310401E51F82000C00F009001200290B0
:10343000012F03D4B9002846FCF737FF002364E0CE
:103440000024039850F82300009949B1C143029821
:1034500008440299884201D2012100E00021029132
:103460004FEA104E1FFA80FBFE1A0698B04200DCAD
:10347000069E1946002241E0059850F822004FEAC6
:1034800010491FFA80F80EFB08F00BFB09FC55F8F9
:1034900021A0A244A24501D2012400E0002401940D
:1034A00008FB0BF80AEB0804444502D24FF0010870
:1034B00001E04FF00008DDF804A0C2444FEA0048E4
:1034C0004444444502D24FF0010801E04FF00008A7
:1034D000C2444FEA0C484444444502D24FF001082C
:1034E00001E04FF00008D04445F8214008EB1040BF
:1034F00000EB1C400EFB0904491C521CB242BBDB12
:10350000B94201DA45F821405B1C0498834297DBFD
:103510000098002810D0012100200BE055F8202051
:10352000D2430A4445F820208A4201D2012100E01A
:103530000021401CB842F1DB07B0BDE8F08F00006D
:1035400010B50C4C2046FEF7D5FD0B492002486211
:103550000020E06020602720606041F2A860A06049
:103560008020A06500212046FEF78CFD4FF400402E
:10357000A06210BD000007400000024010B50B4CD7
:103580002046FEF7B7FD002020600420606045F271
:103590006010A06000212046FEF774FD0220A065A7
:1035A000BDE810400F20FDF781B800000080074003
:1035B00010B50B4C2046FEF79DFD00202060032037
:1035C000606043F2D400A06000212046FEF75AFD5F
:1035D0000220A065BDE810401020FDF767B800008C
:1035E000000008400B461860521E012A03DB9100C0
:1035F000181DFCF75ABE70472DE9F04184460E466F
:1036000017461D46AE4201DA344600E02C46012C36
:1036100004D4A20061463846FCF715FEB5420ADD27
:10362000681E844207DC281B810007EB8400BDE88C
:10363000F041FCF73ABEBDE8F0812DE9F04F89B0CA
:103640000446DDF854A013980D4617461E465B1E2F
:1036500001E0761E5B1E002E03DD57F823100029C3
:10366000F7D0002E6FDD012803D481001298FCF7FB
:103670001CFEA5F1010802E06D1EA8F10108002D55
:1036800003DD54F828000028F6D04FEA8A09002DFF
:103690007DDDB5427BDB701E0690A5F10108BAF115
:1036A000010F03D449461498FCF7FFFD012D07D004
:1036B0004FF0010C701E089057F8202050080EE0C3
:1036C00020683968B0FBF1F2129B1A6002FB11010D
:1036D000149801600722ABE10CF1010C40080028AE
:1036E000FAD101206B1E54F82310490801E0401C58
:1036F00049080029FBD1B54201DC604578D300EBD5
:103700004311029108990CEB41110191BCF1200F7A
:103710001AD0711ECCF120030BE002FA03F94A1E05
:1037200057F8222022FA0CFA4AEA090A47F821A09F
:10373000491E0029F1DC9A403A6001219940491E56
:10374000C943039103E071E14FF0FF3103914FF062
:103750000009002220281CD0A9EB000909F120094A
:1037600054F828304146C0F1200A0BE003FA0AFE63
:103770004B1E54F8233023FA00FB4BEA0E0B44F89F
:1037800021B0491E0029F1DC03FA0AF300E043E10D
:10379000236054F828300793089957F821A0012E88
:1037A00008D04FF0FF31194051452BD10021C246BE
:1037B000731E23E00399F6E7AAF1010A54F82AB030
:1037C000CDF814B05B1E57F823B0CDF810B083B11C
:1037D0004FF0FF3BDDF814E00EEA0B0EDDF810B001
:1037E000DE450BD0DDE904B1594505D9012105E0DD
:1037F00008E1DDF80CB0EDE74FF0FF3141B9002BE7
:10380000DADC05E0534501D9012101E04FF0FF3139
:10381000002903DADDE901A3534574D9DDE901A3E9
:10382000A3EB0A030093002905D02EDA079B4FF083
:103830001F00414620E04146A6F101034FF0000A77
:1038400005E044F821A0A1F10101A3F10103002B3F
:10385000F7DC54F82130D7F800A0A3EB0A0344F8B2
:10386000213039E04FEA430A4B1E54F823304AEA2C
:10387000D37A44F821A0491E0029F3DC59002160C5
:1038800009F101090099491E00914FF0000AA8EBC7
:103890000601491C00231DE054F821E057F823B02D
:1038A000AEEB0B0BABEB0A0BBAF1000F07D0F345F5
:1038B00002D34FF0010A09E04FF0000A06E0F34599
:1038C00002D94FF0010A01E04FF0000A44F821B09C
:1038D000491C5B1CB342DFDB0099CB1701EBD361C2
:1038E0004911129BC1F1000B53F821A0009B03EB7F
:1038F0004B1B012303FA0BF34AEA030A129B43F81A
:1039000021A0414602E028E06D1E491E002D03DD86
:1039100054F82130002BF7D0B54217DBA5F1010890
:103920000120691E0B4654F82110490801E0401C93
:1039300049080029FBD100EB4311A1EB09010291D9
:10394000DDE90131994209D2022207E01DB1A5F15A
:103950000108042202E0012200E00322002A3FF4D1
:10396000F9AE012A0FD04FEAE97009EBD06040119F
:10397000414209EB411555B154F820100023401C79
:10398000C5F1200A1EE014982168016020E00021A2
:1039900006E0149B54F8205043F82150401C491C69
:1039A000069B9942F5DD13E021FA05F954F8201041
:1039B00001FA0AF646EA0906DDF8509049F8236054
:1039C0005B1C401C4045EFDD1498E94040F8231093
:1039D000BCF1200F2CD039680020CCF120050AE082
:1039E00021FA05F3411C57F8211001FA0CF41C438D
:1039F00047F82040401C069B9842F1DBE94047F81D
:103A0000201015E0BAF1010F04D44A46214614985B
:103A1000FCF719FC06220BE0BAF1010F04D44A4668
:103A200021461498FCF70FFC052201E04FF0FF320D
:103A300009B01046BDE8F08F10B5012300220AE05E
:103A400050F822401C4440F822409C4201D20123FD
:103A500000E00023521C8A42F2DB10BD2DE9FF5F1B
:103A6000DDF838800F98012804D40F988100404673
:103A7000FCF71BFC002352E00024009850F82300C0
:103A80004FEA104E1FFA80FB0F98C71A0398B842EE
:103A900000DC039F1946002239E0029850F822000A
:103AA0004FEA104C1FFA80FA0EFB0AF00BFB0CF5E4
:103AB00058F8216006EB0409A14501D2012400E079
:103AC00000240BFB0AF6B144B14501D2012600E007
:103AD000002606EB040A040409EB0406A64201D200
:103AE000012400E0002404EB0A092C042644A64229
:103AF00001D2012400E000244C4448F8216004EB8A
:103B0000104000EB15400EFB0C04491C521CBA423D
:103B1000C3DB0F98814201DA48F821405B1C019811
:103B20008342A9DBBDE8FF9F2DE9FF5F82460E9C23
:103B300093461E464FEAEB700BEBD0604FEA6018DD
:103B40000198401E5AF82000002802DA4FF0FF3991
:103B500001E04FF00009A04501DD274600E047469F
:103B60000025012F03D4B9003046FCF79EFB00204E
:103B700000E0401CB842FCDBA04534DAC8F100018B
:103B80000BEB411201994144A14200DD21460B1A81
:103B9000DAB10021C2F120070BE025FA07FC5AF840
:103BA000215005FA02F848EA0C0846F82080401C2B
:103BB000491C9942F1DBA04215DAFD4009FA02F1F5
:103BC0000D4346F82050401C0DE0002105E05AF856
:103BD000212046F82020401C491C9942F7DB02E0D6
:103BE00046F82090401CA042FADBBDE8FF9F2DE97B
:103BF000F047DDF82080D41702EBD464651100246F
:103C00008D4230DA08EB05068E4200DD0E466F422B
:103C100002EB47172FB350F825206D1CC7F1200C7D
:103C20000BE022FA07F950F8252002FA0CFA4AEACA
:103C3000090A43F824A0641C6D1CB542F1DBFA406C
:103C40008E4204DA50F8260000FA0CF0024343F8E2
:103C50002420641C07E050F8251043F82410641C4D
:103C60006D1CB542F7DB002002E043F82400641C21
:103C70004445FADBBDE8F0877FB500240094019449
:103C800002940394124D2846FEF7ADFB002128460E
:103C9000FEF77EFB4FF4E13100916021ADF8041096
:103CA000ADF80640ADF80840ADF80A40C900ADF8DF
:103CB0000C1069462846FEF7B9FB01221021284660
:103CC000FEF7A9FB01212846FEF780FB7FBD00001F
:103CD000000003407FB500240094019402940394F3
:103CE000144D2846FEF77FFB00212846FEF750FBC7
:103CF0004FF4E13100916021ADF804100821ADF8D6
:103D00000610ADF80840ADF80A404FF44071ADF828
:103D10000C1069462846FEF789FB0122102128462F
:103D2000FEF779FB01212846FEF750FB024980206F
:103D300008607FBD0080034000E100E02DE9F05FF6
:103D400083460D46924699464FF0E027BE6900240F
:103D50001BE0DFF840800CE0B869301A002801DA77
:103D60007969084490FBF8F0484502D90020BDE885
:103D7000F09F40215846FEF747FB0028ECD05846FC
:103D8000FEF7A0FB05F8010B641C5445E1D30120AC
:103D9000EDE70000803801002DE9F04107460D46AF
:103DA000164600240AE080213846FEF72DFB002845
:103DB000F9D0295D3846FEF788FB641CB442F2D383
:103DC000BDE8F08101020000BAFAFFFF0000000028
:103DD000000007000E0015001D0024002B0032001B
:103DE0003900400047004F0056005D0064006B0042
:103DF00072007A00810088008F0096009D00A40068
:103E0000AC00B300BA00C100C800CF00D600DE008D
:103E1000E500EC00F300FA00010108010F011701B1
:103E20001E0125012C0133013A01410148015001D5
:103E300057015E0165016C0173017A0181018901FD
:103E4000900197019E01A501AC01B301BA01C10126
:103E5000C901D001D701DE01E501EC01F301FA014E
:103E600001020802100217021E0225022C02330270
:103E70003A02410248024F0256025D0264026C029D
:103E800073027A02810288028F0296029D02A402C6
:103E9000AB02B202B902C002C702CE02D502DC02F6
:103EA000E302EA02F102F802000307030E0315031E
:103EB0001C0323032A03310338033F0346034D0346
:103EC00054035B0362036903700377037E03840377
:103ED0008B0392039903A003A703AE03B503BC03AE
:103EE000C303CA03D103D803DF03E603ED03F403DE
:103EF000FB03020408040F0416041D0424042B040D
:103F000032043904400447044D0454045B04620441
:103F10006904700477047E0484048B049204990479
:103F2000A004A704AE04B404BB04C204C904D004B2
:103F3000D704DD04E404EB04F204F904FF040605ED
:103F40000D0514051A05210528052F0536053C0524
:103F500043054A05510557055E0565056B05720564
:103F60007905800586058D0594059A05A105A805A6
:103F7000AF05B505BC05C305C905D005D705DD05E9
:103F8000E405EA05F105F805FE0505060C0612062E
:103F900019061F0626062D0633063A064006470672
:103FA0004E0654065B06610668066E0675067B06BD
:103FB000820689068F0696069C06A306A906B00609
:103FC000B606BD06C306CA06D006D606DD06E3065B
:103FD000EA06F006F706FD0604070A0710071707AA
:103FE0001D0724072A07300737073D0744074A07FC
:103FF000500757075D0763076A07700776077D0755
:1040000083078907900796079C07A207A907AF07B0
:10401000B507BC07C207C807CE07D507DB07E1070E
:10402000E707ED07F407FA07000806080C0813086D
:1040300019081F0825082B08310837083E084408CE
:104040004A08500856085C08620868086E08740838
:104050007B08810887088D08930899089F08A508A0
:10406000AB08B108B708BD08C308C908CF08D50810
:10407000DB08E108E708ED08F208F808FE08040983
:104080000A09100916091C09220928092D093309F2
:1040900039093F0945094B09500956095C0962096C
:1040A00068096D09730979097F0984098A099009EA
:1040B00096099B09A109A709AC09B209B809BD096C
:1040C000C309C909CE09D409DA09DF09E509EB09F1
:1040D000F009F609FB09010A070A0C0A120A170A75
:1040E0001D0A220A280A2D0A330A380A3E0A430A00
:1040F000490A4E0A540A590A5F0A640A6A0A6F0A90
:10410000740A7A0A7F0A850A8A0A8F0A950A9A0A25
:104110009F0AA50AAA0AAF0AB50ABA0ABF0AC50ABF
:10412000CA0ACF0AD40ADA0ADF0AE40AE90AEF0A5D
:10413000F40AF90AFE0A040B090B0E0B130B180BF9
:104140001D0B220B280B2D0B320B370B3C0B410B9D
:10415000460B4B0B500B550B5A0B5F0B640B690B4B
:104160006E0B730B780B7D0B820B870B8C0B910BFB
:10417000960B9B0BA00BA50BAA0BAF0BB40BB80BAC
:10418000BD0BC20BC70BCC0BD10BD60BDA0BDF0B65
:10419000E40BE90BED0BF20BF70BFC0B000C050C21
:1041A0000A0C0F0C130C180C1D0C210C260C2B0CDC
:1041B0002F0C340C390C3D0C420C460C4B0C4F0CA4
:1041C000540C590C5D0C620C660C6B0C6F0C740C6F
:1041D000780C7D0C810C860C8A0C8E0C930C970C41
:1041E0009C0CA00CA40CA90CAD0CB20CB60CBA0C17
:1041F000BF0CC30CC70CCC0CD00CD40CD80CDD0CF1
:10420000E10CE50CE90CEE0CF20CF60CFA0CFE0CD1
:10421000020D070D0B0D0F0D130D170D1B0D1F0DAF
:10422000230D280D2C0D300D340D380D3C0D400D97
:10423000440D480D4C0D500D540D580D5C0D5F0D87
:10424000630D670D6B0D6F0D730D770D7B0D7F0D7E
:10425000820D860D8A0D8E0D920D950D990D9D0D79
:10426000A10DA40DA80DAC0DB00DB30DB70DBB0D78
:10427000BE0DC20DC60DC90DCD0DD00DD40DD80D7E
:10428000DB0DDF0DE20DE60DE90DED0DF00DF40D8A
:10429000F70DFB0DFE0D020E050E090E0C0E100E95
:1042A000130E160E1A0E1D0E210E240E270E2B0EA7
:1042B0002E0E310E340E380E3B0E3E0E420E450EC3
:1042C000480E4B0E4E0E520E550E580E5B0E5E0EE5
:1042D000610E650E680E6B0E6E0E710E740E770E0B
:1042E0007A0E7D0E800E830E860E890E8C0E8F0E3A
:1042F000920E950E980E9B0E9E0EA10EA40EA70E6A
:10430000A90EAC0EAF0EB20EB50EB80EBA0EBD0EA3
:10431000C00EC30EC50EC80ECB0ECE0ED00ED30EE1
:10432000D60ED80EDB0EDE0EE00EE30EE60EE80E25
:10433000EB0EED0EF00EF30EF50EF80EFA0EFD0E6E
:10434000FF0E020F040F070F090F0B0F0E0F100FB8
:10435000130F150F170F1A0F1C0F1F0F210F230F0D
:10436000250F280F2A0F2C0F2F0F310F330F350F6A
:10437000380F3A0F3C0F3E0F400F420F450F470FCB
:10438000490F4B0F4D0F4F0F510F530F550F570F35
:10439000590F5B0F5D0F5F0F610F630F650F670FA5
:1043A000690F6B0F6D0F6F0F710F730F740F760F17
:1043B000780F7A0F7C0F7E0F7F0F810F830F850F91
:1043C000860F880F8A0F8B0F8D0F8F0F900F920F14
:1043D000940F950F970F990F9A0F9C0F9D0F9F0F9A
:1043E000A00FA20FA30FA50FA60FA80FA90FAB0F29
:1043F000AC0FAE0FAF0FB10FB20FB30FB50FB60FBB
:10440000B70FB90FBA0FBB0FBD0FBE0FBF0FC10F54
:10441000C20FC30FC40FC50FC70FC80FC90FCA0FF4
:10442000CB0FCC0FCE0FCF0FD00FD10FD20FD30F9A
:10443000D40FD50FD60FD70FD80FD90FDA0FDB0F48
:10444000DC0FDD0FDE0FDF0FE00FE10FE10FE20FFA
:10445000E30FE40FE50FE60FE60FE70FE80FE90FB4
:10446000EA0FEA0FEB0FEC0FEC0FED0FEE0FEE0F74
:10447000EF0FF00FF00FF10FF20FF20FF30FF30F3A
:10448000F40FF40FF50FF60FF60FF70FF70FF70F06
:10449000F80FF80FF90FF90FFA0FFA0FFA0FFB0FD9
:1044A000FB0FFB0FFC0FFC0FFC0FFD0FFD0FFD0FB3
:1044B000FE0FFE0FFE0FFE0FFE0FFF0FFF0FFF0F91
:1044C000FF0FFF0FFF0FFF0FFF0FFF0FFF0FFF0F7C
:1044D000FF0FFF0FFF0FFF0FFF0F05060606060673
:1044E000060606060606060606060606060606066C
:1044F000060606060606060606060606060606065C
:10450000060606060606060606060606060606064B
:10451000060606060606060606060606060606063B
:10452000060606060606060606060606060606062B
:10453000060606060606060606060606060606061B
:10454000050505050505050505050505050505051B
:10455000050505050505050505050505050505050B
:1045600005050505050505050505050505050505FB
:1045700005050505050505050505050505050505EB
:1045800005050505050505050505050505050505DB
:1045900005050505050505050505050505050505CB
:1045A00005050505050505050505050505050505BB
:1045B00005050505050505050505050504040404AF
:1045C00004040404040404040404040404040404AB
:1045D000040404040404040404040404040404049B
:1045E000040404040404040404040404040404048B
:1045F000040404040404040404040404040404047B
:104600000404040403030303030303030303030376
:10461000030303030303030303030303030303036A
:10462000030303030303030303030303030303035A
:10463000030303030303030303030303030303034A
:10464000020202020202020202020202020202024A
:10465000020202020202020202020202020202023A
:10466000020202020202020202020202020202022A
:104670000202020202010101010101010101010125
:10468000010101010101010101010101010101011A
:10469000010101010101010101010101010000000D
:1046A000000000000000000000FFFFFFFFFFFFFF11
:1046B000FFFFFFFFFFFFFFFFFFFFFFFFFFFFFFFF0A
:1046C000FFFFFFFFFFFFFFFFFFFFFFFFFFFFFFFFFA
:1046D000FFFFFFFFFFFEFEFEFEFEFEFEFEFEFEFEF5
:1046E000FEFEFEFEFEFEFEFEFEFEFEFEFEFEFEFEEA
:1046F000FEFEFEFEFEFEFEFEFEFEFEFEFEFEFEFEDA
:10470000FEFEFEFDFDFDFDFDFDFDFDFDFDFDFDFDD6
:10471000FDFDFDFDFDFDFDFDFDFDFDFDFDFDFDFDC9
:10472000FDFDFDFDFDFDFDFDFDFDFDFDFDFDFDFCBA
:10473000FCFCFCFCFCFCFCFCFCFCFCFCFCFCFCFCB9
:10474000FCFCFCFCFCFCFCFCFCFCFCFCFCFCFCFCA9
:10475000FCFCFCFCFCFCFCFCFCFCFCFCFCFCFCFC99
:10476000FCFCFCFCFCFCFCFCFCFCFCFCFBFBFBFB8D
:10477000FBFBFBFBFBFBFBFBFBFBFBFBFBFBFBFB89
:10478000FBFBFBFBFBFBFBFBFBFBFBFBFBFBFBFB79
:10479000FBFBFBFBFBFBFBFBFBFBFBFBFBFBFBFB69
:1047A000FBFBFBFBFBFBFBFBFBFBFBFBFBFBFBFB59
:1047B000FBFBFBFBFBFBFBFBFBFAFAFAFAFAFAFA50
:1047C000FAFAFAFAFAFAFAFAFAFAFAFAFAFAFAFA49
:1047D000FAFAFAFAFAFAFAFAFAFAFAFAFAFAFAFA39
:1047E000FAFAFAFAFAFAFAFAFAFAFAFAFAFAFAFA29
:1047F000FAFAFAFAFAFAFAFAFAFAFAFAFAFAFAFA19
:10480000FAFAFAFAFAFAFAFAFAFAFAFAFAFAFAFA08
:10481000FAFAFAFAFAFAFAFAFAFAFAFAFAFAFAFAF8
:10482000FAFAFAFAFAFAFAFAFAFAFAFAFAFAFAFAE8
:10483000FAFAFAFAFAFAFAFAFAFAFAFAFAFAFAFAD8
:10484000FAFAFAFAFAFAFAFAFAFAFAFAFAFAFAFAC8
:10485000FAFAFAFAFAFAFAFAFAFAFAFAFAFAFAFAB8
:10486000FAFAFAFAFAFAFAFAFAFAFAFAFAFAFAFAA8
:10487000FAFAFAFAFAFAFAFAFAFAFAFAFAFAFAFA98
:10488000FAFAFAFAFAFAFAFAFAFAFAFAFAFAFAFA88
:10489000FAFAFAFAFAFAFAFAFAFAFAFAFAFAFAFA78
:1048A000FAFAFAFAFAFAFAFAFAFAFAFAFAFAFAFA68
:1048B000FAFAFAFAFAFAFAFAFAFAFAFAFAFAFAFA58
:1048C000FAFAFAFAFAFAFAFAFAFAFAFAFAFAFAFA48
:1048D000FAFAFAFAFAFAFAFAFAFAFAFAFAFAFAFA38
:1048E000FAFAFAFAFAFAFAFAFAFAFAFBFBFBFBFB23
:1048F000FBFBFBFBFBFBFBFBFBFBFBFBFBFBFBFB08
:10490000FBFBFBFBFBFBFBFBFBFBFBFBFBFBFBFBF7
:10491000FBFBFBFBFBFBFBFBFBFBFBFBFBFBFBFBE7
:10492000FBFBFBFBFBFBFBFBFBFBFBFBFBFBFBFBD7
:10493000FBFBFBFBFBFBFBFBFBFBFBFBFBFBFBFBC7
:10494000FBFBFBFBFBFBFBFBFBFBFBFBFBFBFBFBB7
:10495000FBFBFCFCFCFCFCFCFCFCFCFCFCFCFCFC99
:10496000FCFCFCFCFCFCFCFCFCFCFCFCFCFCFCFC87
:10497000FCFCFCFCFCFCFCFCFCFCFCFCFCFCFCFC77
:10498000FCFCFCFCFCFCFCFCFCFCFCFCFCFCFCFC67
:10499000FCFDFDFDFDFDFDFDFDFDFDFDFDFDFDFD48
:1049A000FDFDFDFDFDFDFDFDFDFDFDFDFDFDFDFD37
:1049B000FDFDFDFDFDFDFDFDFDFDFDFDFDFDFDFD27
:1049C000FDFDFDFDFDFDFDFDFDFDFDFDFDFDFDFD17
:1049D000FDFDFDFEFEFEFEFEFEFEFEFEFEFEFEFEFA
:1049E000FEFEFEFEFEFEFEFEFEFEFEFEFEFEFEFEE7
:1049F000FEFEFEFEFEFEFEFEFEFEFEFEFEFEFEFED7
:104A0000FEFEFEFEFEFEFEFEFEFEFEFEFEFFFFFFC3
:104A1000FFFFFFFFFFFFFFFFFFFFFFFFFFFFFFFFA6
:104A2000FF00000000000000000000000000000087
:104A30000000000000000000000000000000000076
:104A4000000000000001010101010101010101015B
:104A50000101010101010101010101010101010146
:104A60000101010101010101010101010101010136
:104A70000101010101010101010101020202020221
:104A80000202020202020202020202020202020206
:104A900002020202020202020202020202020202F6
:104AA00002020202020202020202020202020202E6
:104AB00002020202020202020203030303030303CF
:104AC00003030303030303030303030303030303B6
:104AD00003030303030303030303030303030303A6
:104AE0000303030303030303030303030303030396
:104AF000030303030303030304040404040404047E
:104B00000404040404040404040404040404040465
:104B10000404040404040404040404040404040455
:104B20000404040404040404040404040404040445
:104B30000404040404040404040404040404040435
:104B40000405050505050505050505050505050516
:104B50000505050505050505050505050505050505
:104B600005050505050505050505050505050505F5
:104B700005050505050505050505050505050505E5
:104B800005050505050505050505050505050505D5
:104B900005050505050505050505050505050505C5
:104BA00005050505050505050505050505050605B4
:104BB0000606060506060606060606060606060696
:104BC0000606060606060606060606060606060685
:104BD0000606060606060606060606060606060675
:104BE0000606060606060606060606060606060665
:104BF0000606060606060606060606060606060655
:104C00000606060606060606060606060606060644
:104C10000606060606060606060606060606060634
:104C20000606060606060606060606060606060624
:104C30000606060606060606060606060606060614
:104C40000606060606060606060606060606060604
:104C500006060606060606060605050605050505FA
:104C600005050505050505050505050505050505F4
:104C700005050505050505050505050505050505E4
:104C800005050505050505050505050505050505D4
:104C900005050505050505050505050505050505C4
:104CA00005050505050505050505050505050505B4
:104CB00005050505050505050505050505050505A4
:104CC000050505050504040404050505040404049C
:104CD0000404040404040404040404040404040494
:104CE0000404040404040404040404040404040484
:104CF0000404040404040404040404040404040474
:104D00000404040404040404040404040404040463
:104D10000403040303030303030303030303030361
:104D20000303030303030303030303030303030353
:104D30000303030303030303030303030303030343
:104D40000303030303030303030302020202020239
:104D50000202020202020202020202020202020233
:104D60000202020202020202020202020202020223
:104D70000202020202020202020202020201010116
:104D80000101010101010101010101010101010113
:104D90000101010101010101010101010101010103
:104DA000010101010101010100000000000000FFFC
:104DB000FFFFFFFFFFFFFFFFFFFFFFFFFFFFFFFF03
:104DC000FFFFFFFFFFFFFFFFFFFFFFFFFFFFFFFFF3
:104DD000FFFFFFFFFFFFFFFFFFFFFFFFFFFEFEFEE6
:104DE000FEFEFEFEFEFEFEFEFEFEFEFEFEFEFEFEE3
:104DF000FEFEFEFEFEFEFEFEFEFEFEFEFEFEFEFED3
:104E0000FEFEFEFEFEFEFEFEFEFEFEFDFDFDFDFDC7
:104E1000FDFDFDFDFDFDFDFDFDFDFDFDFDFDFDFDC2
:104E2000FDFDFDFDFDFDFDFDFDFDFDFDFDFDFDFDB2
:104E3000FDFDFCFCFCFCFCFCFCFCFCFCFCFCFCFCB0
:104E4000FCFCFCFCFCFCFCFCFCFCFCFCFCFCFCFCA2
:104E5000FCFCFCFCFCFCFCFCFCFCFCFCFCFCFCFC92
:104E6000FCFCFCFCFCFCFCFCFBFBFBFBFBFBFBFB8A
:104E7000FBFBFBFBFBFBFBFBFBFBFBFBFBFBFBFB82
:104E8000FBFBFBFBFBFBFBFBFBFBFBFBFBFBFBFB72
:104E9000FBFBFBFBFBFBFBFBFBFBFBFBFBFBFBFB62
:104EA000FBFBFBFBFBFBFBFBFBFBFBFBFBFBFBFB52
:104EB000FBFBFBFBFAFAFAFAFAFAFAFAFAFAFAFA4E
:104EC000FAFAFAFAFAFAFAFAFAFAFAFAFAFAFAFA42
:104ED000FAFAFAFAFAFAFAFAFAFAFAFAFAFAFAFA32
:104EE000FAFAFAFAFAFAFAFAFAFAFAFAFAFAFAFA22
:104EF000FAFAFAFAFAFAFAFAFAFAFAFAFAFAFAFA12
:104F0000FAFAFAFAFAFAFAFAFAFAFAFAFAFAFAFA01
:104F1000FAFAFAFAFAFAFAFAFAFAFAFAFAFAFAFAF1
:104F2000FAFAFAFAFAFAFAFAFAFAFAFAFAFAF9F9E3
:104F3000F9F9F9F9F9F9F9F9F9F9F9F9F9F9F9F9E1
:104F4000FAFAFAFAFAF9F9F9F9F9F9F9FAF9F9F9CB
:104F5000F9F9F9F9F9F9F9F9F9F9F9F9F9F9F9F9C1
:104F6000F9F9F9F9F9F9F9F9F9F9F9F9F9F9F9F9B1
:104F7000F9F9F9F9F9F9F9F9FAF9F9FAFAFAFAFA9B
:104F8000FAFAFAFAFAFAFAF9F9F9FAFAFAFAFAFA84
:104F9000FAFAFAFAFAFAFAFAFAFAFAFAFAFAFAFA71
:104FA000FAFAFAFAFAFAFAFAFAFAFAFAFAFAFAFA61
:104FB000FAFAFAFAFAFAFAFAFAFAFAFAFAFAFAFA51
:104FC000FAFAFAFAFAFAFAFAFAFAFAFAFAFAFAFA41
:104FD000FAFAFAFAFAFAFAFAFAFAFAFAFAFAFAFA31
:104FE000FAFAFAFAFAFAFAFAFAFAFAFAFAFAFAFA21
:104FF000FAFAFAFAFAFAFAFAFAFAFAFAFAFAFAFA11
:10500000FAFAFAFAFAFAFAFAFAFAFAFAFAFAFAFA00
:10501000FAFAFAFBFBFBFBFBFBFBFBFBFBFBFBFBE3
:10502000FBFBFBFBFBFBFBFBFBFBFBFBFBFBFBFBD0
:10503000FBFBFBFBFBFBFBFBFBFBFBFBFBFBFBFBC0
:10504000FBFBFBFBFBFBFBFBFBFBFBFBFBFBFBFBB0
:10505000FBFBFBFBFBFBFBFBFBFBFBFBFBFBFBFBA0
:10506000FBFCFCFCFCFCFCFCFCFCFCFCFCFCFCFC81
:10507000FCFCFCFCFCFCFCFCFCFCFCFCFCFCFCFC70
:10508000FCFCFCFCFCFCFCFCFCFCFCFCFCFCFCFC60
:10509000FCFCFCFCFCFCFCFCFCFCFCFCFCFCFCFC50
:1050A000FCFCFDFDFDFDFDFDFDFDFDFDFDFDFDFD32
:1050B000FDFDFDFDFDFDFDFDFDFDFDFDFDFDFDFD20
:1050C000FDFDFDFDFDFDFDFDFDFDFDFDFDFDFDFD10
:1050D000FDFDFDFDFDFDFDFDFDFDFDFDFDFDFDFD00
:1050E000FDFDFEFEFEFEFEFEFEFEFEFEFEFEFEFEE2
:1050F000FEFEFEFEFEFEFEFEFEFEFEFEFEFEFEFED0
:10510000FEFEFEFEFEFEFEFEFEFEFEFEFEFEFEFEBF
:10511000FEFEFEFEFEFEFEFEFEFEFEFFFFFFFFFFAA
:10512000FFFFFFFFFFFFFFFFFFFFFF00000000008A
:10513000000000000000000000000000000000006F
:10514000000000000000000000000000000000005F
:105150000000000101010101010101010101010142
:10516000010101010101010101010101010101012F
:10517000010101010101010101010101010101011F
:105180000101010101010101010202020202020208
:1051900002020202020202020202020202020202EF
:1051A00002020202020202020202020202020202DF
:1051B00002020202020202020202020202020202CF
:1051C00002020202020202020202020303030303BA
:1051D000030303030303030303030303030303039F
:1051E000030303030303030303030303030303038F
:1051F000030303030303030303030303030303037F
:105200000303030303030303030404040404040467
:10521000040404040404040404040404040404044E
:10522000040404040404040404040404040404043E
:10523000040404040404040404040404040404042E
:10524000040404040404040404040404040404041E
:105250000404040505050505050505050505050501
:1052600005050505050505050505050505050505EE
:1052700005050505050505050505050505050505DE
:1052800005050505050505050505050505050505CE
:1052900005050505050505050505050505050505BE
:1052A00005050505050505050505050505050505AE
:1052B000050505050505050505050505050505059E
:1052C000050505050505050505050505050505058E
:1052D000050505050505050505050505050505057E
:1052E000050505050505050506060000000000008A
:1052F00000000000000000000000000000000000AE
:105300000000000000000000000000000101010199
:10531000010101010101010101010101010101017D
:10532000010101010101010101010101010101016D
:10533000010102020202020202020202020202024F
:10534000020202020202020202020202020202023D
:105350000202020202020202020202020303030329
:10536000030303030303030303030303030303030D
:1053700003030303030303030303030303030303FD
:1053800003040404040404040404040404040404DE
:1053900004040404040404040404040404040404CD
:1053A00004040404040404040505050505050505B5
:1053B000050505050505050505050505050505059D
:1053C000050505050505050505050505050505058D
:1053D0000505050505050506060606060606060674
:1053E000060606060606060606060606060606065D
:1053F000060606060606060606060606060606064D
:105400000606060606060606060607070707070736
:10541000070707070707070707070707070707071C
:10542000070707070707070707070707070707070C
:1054300007070707070707070707070707070707FC
:1054400007070707070707070707070707070808EA
:1054500008080808080808080808080808080808CC
:1054600008080808080808080808080808080808BC
:1054700008080808080808080808080808080808AC
:10548000080808080808080808080808080808089C
:10549000080808080808080808080808080808088C
:1054A000080808080808080808080808080808087C
:1054B000080808080808080808080808080808086C
:1054C000080808080808080808080808080808085C
:1054D000080808080808080808080808080808084C
:1054E000080808080808080808080808080808083C
:1054F000080808080808080808080808080808082C
:10550000080808080808080808080808080808081B
:10551000080808080808080808080808080808080B
:105520000808080808080808070707070707070703
:1055300007070707070707070707070707070707FB
:1055400007070707070707070707070707070707EB
:1055500007070707070707070707070707070707DB
:1055600007070707070707070707070707070707CB
:1055700007070606060606060606060606060606C9
:1055800006060606060606060606060606060606BB
:1055900006060606060606060606060606060606AB
:1055A00006060606060606050505050505050505A4
:1055B000050505050505050505050505050505059B
:1055C000050505050505050505050505040404048F
:1055D000040404040404040404040404040404048B
:1055E000040404040404040404040404040404047B
:1055F0000404040404030303030303030303030376
:10560000030303030303030303030303030303036A
:105610000303030303030303030202020202020261
:10562000020202020202020202020202020202025A
:10563000020202020202020202020202010101014E
:10564000010101010101010101010101010101014A
:10565000010101010101010101010101010000003D
:10566000000000000000000000000000000000003A
:10567000000000000000000000000000000000002A
:10568000000000000000000000000000000000001A
:10569000000000000000000000000000000000000A
:10610000000000000000004054FB211900000001C5
:10611000000200030004000500060007FF07FF0857
:10612000FF09FE0AFE0BFD0CFC0DFC0EFB0FFA1026
:10613000F811F712F613F414F215F016EE17EC1826
:10614000E919E71AE41BE01CDD1DDA1ED61FD22078
:10615000CD21C922C423BF24B925B426AE27A8283F
:10616000A1299A2A932B8B2C842D7B2E732F6A3096
:10617000613157324D33433438352D362237163896
:106180000939FD39F03AE23BD43CC63DB73EA83F61
:1061900098408841774266435444424530461D4703
:1061A0000948F548E149CC4AB64BA04C8A4D734E9C
:1061B0005B4F43502B511152F852DD53C354A75536
:1061C0008C566F5752583459165AF85AD85BB95CE6
:1061D000985D775E565F33601161ED61C962A563BA
:1061E0007F645A6533660C67E567BD6894696A6ABF
:1061F000406B166CEA6CBE6D926E656F37700871FD
:10620000D971AA72797348741775E475B2767E777E
:106210004A781579E079AA7A737B3B7C037DCB7D44
:10622000917E587F1D80E280A68169822C83EE8357
:10623000B08470853186F086AF876D882B89E889B8
:10624000A48A608B1B8CD58C8F8D488E008FB88F65
:106250006F902691DC9191924593F993AC945F9560
:106260001196C29673972398D3988199309ADD9AA4
:106270008A9B369CE29C8D9D379EE19E8A9F32A030
:10628000DAA082A128A2CEA274A318A4BCA460A5FF
:1062900003A6A5A647A7E8A789A828A9C8A966AA0A
:1062A00004ABA2AB3FACDBAC77AD12AEACAE46AF4D
:1062B000E0AF78B010B1A8B13FB2D5B26BB300B4C3
:1062C00095B429B5BDB550B6E2B674B705B896B861
:1062D00026B9B6B945BAD3BA61BBEFBB7BBC08BD22
:1062E00093BD1FBEA9BE33BFBDBF46C0CFC057C1FF
:1062F000DEC165C2EBC271C3F7C37BC400C583C5F1
:1063000007C68AC60CC78EC70FC890C810C9FF7FC2
:10631000F67FD97FA77F627F0A7F9D7E1E7E8A7D62
:10632000E47C2A7C5D7B7D7A8A7985786C774276FD
:106330000575B6735572E3705F6FCA6D246C6E6A33
:10634000A768D066E964F262EC60D75EB45C825AFA
:106350004358F6559B533451C04E404CB4491D47E9
:106360007B44CE41173F573C8D39BA36DF33FC3082
:10637000112E1F2B2728282524221A1F0C1CF91840
:10638000E215C812AB0F8C0C6B0948062403000001
:10639000DCFCB8F995F674F355F038ED1EEA07E722
:1063A000F4E3E6E0DCDDD8DAD9D7E1D4EFD104CFED
:1063B00021CC46C973C6A9C3E9C032BE85BBE3B8C8
:1063C0004CB6C0B340B1CCAE65AC0AAABDA77EA5A1
:1063D0004CA329A1149F0E9D179B30995997929514
:1063E000DC933692A1901D8FAB8D4A8CFB8ABE89BF
:1063F00094887B8776868385A384D6831C83768264
:10640000E2816381F6809E80598027800A80018026
:106410000A80278059809E80F6806381E28176829F
:106420001C83D683A384838576867B879488BE89E4
:10643000FB8A4A8CAB8D1D8FA1903692DC9392958E
:1064400059973099179B0E9D149F29A14CA37EA5A7
:10645000BDA70AAA65ACCCAE40B1C0B34CB6E3B898
:1064600085BB32BEE9C0A9C373C646C921CC04CFDF
:10647000EFD1E1D4D9D7D8DADCDDE6E0F4E307E701
:106480001EEA38ED55F074F395F6B8F9DCFC00001F
:10649000240348066B098C0CAB0FC812E215F918DF
:1064A0000C1C1A1F2422282527281F2B112EFC30F4
:1064B000DF33BA368D39573C173FCE417B441D47F9
:1064C000B449404CC04E34519B53F6554358825A00
:1064D000B45CD75EEC60F262E964D066A7686E6A6D
:1064E000246CCA6D5F6FE3705572B67305754276A2
:1064F0006C7785788A797D7A5D7B2A7CE47C8A7DDD
:106500001E7E9D7E0A7F627FA77FD97FF67F000077
:10651000240348066B098C0CAB0FC812E215F9185E
:106520000C1C1A1F2422282527281F2B112EFC3073
:10653000DF33BA368D39573C173FCE417B441D4778
